:1000000000000120015C0000295C0000B52900000F
:100010002D5C00002F5C0000315C0000000000003F
:10002000000000000000000000000000450C00007F
:10003000355C000000000000650C00005519000050
:100040009D4400003B5C000055490000295200001F
:10005000654C00003B5C0000C9470000B94A000045
:10006000F9510000095200003B5C00003B5C0000BD
:100070003B5C00003B5C00003B5C00003B5C000024
:100080003B5C0000E52500003B5C00003B5C0000A1
:10009000812600003B5C00003B5C00003B5C0000F4
:1000A0003B5C00003B5C00003B5C00003B5C0000F4
:1000B000714A00003B5C00000000000000000000EE
:1000C0003B5C0000814A0000914A00003B5C00005C
:1000D0003B5C00003B5C00003B5C0000000000005B
:1000E0000000000000000000000000000000000010
:1000F0000000000000000000000000000000000000
:1001000000000000000000000000000000000000EF
:1001100000000000000000000000000000000000DF
:1001200000000000000000000000000000000000CF
:1001300000000000000000000000000000000000BF
:1001400000000000000000000000000000000000AF
:10015000000000000000000000000000000000009F
:10016000000000000000000000000000000000008F
:10017000000000000000000000000000000000007F
:10018000000000000000000000000000000000006F
:10019000000000000000000000000000000000005F
:1001A000000000000000000000000000000000004F
:1001B000000000000000000000000000000000003F
:1001C000000000000000000000000000000000002F
:1001D000000000000000000000000000000000001F
:1001E000000000000000000000000000000000000F
:1001F00000000000000000000000000000000000FF
:1002000010B5054C237833B9044B13B10448AFF350
:1002100000800123237010BDD809002000000000D9
:10022000F4F0000008B5034B1BB103490348AFF3DA
:10023000008008BD00000000DC090020F4F0000090
:10024000154B002B08BF134B9D46A3F5803A0021A8
:100250008B460F461348144A121A05F021FE0F4B25
:10026000002B00D098470E4B002B00D09847002061
:10027000002104000D000D48002802D00C4809F0B0
:10028000A9FB05F0EBFC2000290000F0D1F905F0F6
:10029000D5FC00BF000008000000012000000000A5
:1002A00000000000D80900204C2B0020D599000048
:1002B000A5AB0000F8B5044601F056F82A480168DD
:1002C00071B92A4B2A4A23F00703C2E90031294AAF
:1002D00040F6F875C2E90015C3E900250123036063
:1002E000002C3ED004F00703C3F11003DA43A2420E
:1002F00037D31C44002C34DD1F490868A0428C46CB
:100300002FD31B4A13685D68A54201D21D681DBB2F
:10031000184DAB4225D01E68156816605E68361B06
:10032000102E05F108050AD91A1956605C60576845
:100330000F4C26687168B94211D3166022605A6862
:10034000801A42F000425A600022CCF800001A6085
:1003500001F0DCF82846F8BD1A462B46D3E73446B0
:10036000E7E70025F4E700BFFC190020FB090020A7
:10037000001A0020F41900200000002010B50446E7
:10038000A0B350F8043C002B04DB19494FF48B70E8
:1003900002F0ACFB54F8083C23B1154940F21710A9
:1003A00002F0A4FB54F8043C002B1FDA54F8082C8C
:1003B000E2B923F0004344F8043C00F0D5FF54F8C0
:1003C000042C0C4B1968486890420DD3224642F821
:1003D000081D1A60084A54F8043C11680B44136065
:1003E000BDE8104001F092B80B46EBE710BD00BF2E
:1003F00098D70000001A00200000002008B54FF434
:100400000041002003F010F918B1144A142102F041
:10041000D4F803F03BF8124805F08CFD01211920B7
:1004200000F0EAFB0121182000F0E6FB0121172073
:1004300000F0E2FB0021162000F0DEFB00211C2072
:1004400000F0DAFB192000F0E7FB172000F0E4FBD6
:100450001820BDE8084000F0DFBB00BFA1D70000B6
:10046000ABD70000F0B54FF400418FB00746002035
:1004700003F0DAF818B1224A882102F09EF8214CE4
:1004800094E80F0002AD103485E80F0094E80F00E7
:1004900006AE86E80F0000231A463146284602F0D1
:1004A00053FC18B1164A9A2102F087F81648174EE5
:1004B000174C05F03FFD284601F092FA102200216A
:1004C0000AA805F0EDFC134D3146284605F032FD33
:1004D0000021204601F0FCFA78680CF0A1FC0E4ADD
:1004E000CDE9000110210AA805F000FE01210AA8AB
:1004F00001F0EEFA4FF4967001F0BEF8E4E700BFA9
:10050000A0D80000C0D70000A7D80000BCD80000C9
:10051000D5D80000D0D80000DCD800002DE9FF417C
:100520001F4B4360064601F0BDFD10EE104A6420EB
:1005300001F0A2F820460CF073FC02460B46194865
:10054000194FDFF87080194D05F0F4FC20460CF0CF
:1005500067FC02460B464046394605F0EBFC01F0CD
:10056000A1FD012111488DED010ACDED020A8DEDAD
:10057000031A10EE104A02F0C6FABFF35F8F2B6821
:100580007460012B03D00A49932002F0AFFABFF345
:100590005F8F00234FF496702B6001F06DF8D5E764
:1005A00000000442DFD80000E5D80000942A0020B3
:1005B00004D90000F9D800001FB5174805F0BAFCAF
:1005C000FFF71CFF4FF40041002003F02DF818B195
:1005D000124A372101F0F1FF02F058FF104805F0F0
:1005E000A9FC104B0FCB6C4684E80F001322142398
:1005F00021460D48CDE9002303F070FE18B1074AEB
:10060000442101F0DAFF084801F06EFE074805F0CA
:1006100091FC04B010BD00BF43D80000A0D800007A
:100620005FD80000E0D7000088D8000070D8000034
:1006300010B5184B002286B01A60BFF35F8F02F02E
:100640004DFB18B1144A5E2101F0B7FF0023134897
:10065000039304930593022405F06CFCFFF7ACFFB1
:100660000F4B01934FF4827203AB0E4900940E4876
:1006700000F04EFD0D4B0E490E48CDE900434FF4FE
:10068000827203AB00F044FD0B4805F053FC00F010
:1006900031FEFEE7942A0020A0D80000F0D7000029
:1006A000982A002015D80000650400008C2A00203C
:1006B0001CD800001D05000023D8000008B5064B1B
:1006C0001B68013303D005499E2002F00FFA402336
:1006D00083F31188FEE700BF501A00205ED90000A6
:1006E0004FF0807340E90213054B40F80C3C6FF06B
:1006F000020340F8202C40F8243C4438704700BFE7
:10070000BD06000013B5294B1A68294B9A4203D045
:100710002849B02002F0EAF9274B1A78D2B20192A8
:10072000FF221A701B78254ADBB28DF803309DF842
:10073000033003F002031370214B07221A600021DB
:100740009DF80300000602F1FF3425D401B11A60C0
:100750001A68164C02F007021A60019B164ADBB2B7
:100760001370E02384F8223001F008F9154B0022C1
:100770001A60D4F88830144A43F47003C4F88830FF
:10078000536843F040435360236943F010032361EF
:1007900000F04AFAFFF792FF9DF803205200D2B210
:1007A0008DF8032001212246CAE700BF00ED00E0DA
:1007B00041C20F415ED9000000E400E0481A002069
:1007C0004C1A0020501A002030EF00E0402383F341
:1007D0001188084A13680133012B136009D1064BB5
:1007E0005B68C3F3080323B1044940F2111002F01F
:1007F0007DB97047501A002000ED00E05ED900007E
:1008000010B5074C236823B906494FF48C7002F0E9
:100810006DF92368013B23600BB983F3118810BD88
:10082000501A00205ED9000010B50446FFF7CEFF35
:10083000A46BFFF7E5FFB4FA84F0400910BD03464E
:1008400010B41A6C084662B1D9689C681144A14280
:10085000D96024BF1968D960D9685DF8044B05F0E8
:1008600085BA5DF8044B704770B50446FFF7AEFFDC
:1008700094F8455004F124066DB2002D14DCFF23DA
:1008800084F84530FFF7BCFFFFF7A0FF94F8445011
:1008900004F110066DB2002D12DCFF2384F8443001
:1008A000BDE87040FFF7ACBF636A002BE7D030466D
:1008B00000F086FF08B101F037F8013D6DB2DCE7CA
:1008C0002369002BE9D0304600F07AFF08B101F02F
:1008D0002BF8013D6DB2DEE7F8B50D460446A0B930
:1008E00022494FF4957002F001F940F25F101F4960
:1008F00002F0FCF8002037E004F1100000F043F9AA
:1009000004F1240000F03FF92BE0C66B002EECD080
:10091000236CA6FB0367002FE7D1FFF757FFD4E94D
:100920000F312268A7634B43D0185B1A1344E3606E
:10093000FF2384F84430A060626084F84530002DC5
:10094000DAD123696BB104F1100000F039FF40B136
:10095000074B4FF080525A6040BFBFF34F8FBFF339
:100960006F8FFFF74DFF0120F8BD00BF6EE600005E
:1009700000ED00E070B50D460646C8B1A1FB0023AE
:10098000B3B9484310F1490F12D84830FFF792FC31
:10099000044638B145B92060C4E90F6501212046FD
:1009A000FFF79AFF204670BD00F148030360F3E7AC
:1009B000034940F2112002F099F80024F2E700BF49
:1009C0006EE600002DE9F04385B00F460192044623
:1009D00020B944494FF4B36002F088F837B9236C6A
:1009E00023B1404940F29C5002F080F800F0A2FF91
:1009F00030B9019B23B13B4940F2A15002F076F897
:100A00000026DFF8E490B046FFF7E0FEA56BDDB10D
:100A100039462046013DFFF712FFA56323696BB1FC
:100A200004F1100000F0CCFE40B12F4B4FF080528B
:100A30005A6040BFBFF34F8FBFF36F8FFFF7E0FEE9
:100A4000012005B0BDE8F083019D1DB9FFF7D8FE78
:100A50000020F6E716B902A800F024FFFFF7D0FE49
:100A600000F082FCFFF7B2FE94F84430FF2B08BF81
:100A700084F8448094F84530FF2B08BF84F8458003
:100A8000FFF7BEFE01A902A800F018FFF8B9204642
:100A9000FFF7CAFEA8B1019904F1240000F04AFE54
:100AA0002046FFF7E1FE00F031FD40B94FF08053E2
:100AB000C9F8043040BFBFF34F8FBFF36F8F0126DB
:100AC000A2E72046FFF7D0FE00F020FDF7E7204622
:100AD000FFF7CAFE00F01AFD2046FFF7A5FE00282A
:100AE000EDD0B5E76EE6000000ED00E038B50D464C
:100AF000044620B9104940F6E61001F0F7FFBDB1F9
:100B00000E4A53689C4211460DD01368D068002BE2
:100B10000CBF1346002384420BD03BB993683BB90A
:100B200002F1080302E0002301EBC303C3E9005410
:100B300038BD0123F8E700BF6EE600009C2A0020C4
:100B400070B504460D461646FFF740FE94F8443053
:100B5000FF2B04BF002384F8443094F84530FF2B6A
:100B600004BF002384F84530FFF74AFEA36B2BB97E
:100B70003246294604F1240000F0F6FD2046BDE887
:100B80007040FFF771BE00F108034FF0FF32436081
:100B9000C0E902230361002303607047002303615F
:100BA00070470A68531C30B50AD103695A684A6015
:100BB00091608B605960086103680133036030BD48
:100BC00000F108035C6825689542EFD82346F9E7F1
:100BD000D0E9012103699160D0E9011251605A689E
:100BE000824204BF82685A60002202611A68013A98
:100BF0001A6018687047000038B504460D46014673
:100C0000044805F097F904F1A05000F5E070800069
:100C1000056038BD6BD90000012303FA00F0014BD9
:100C2000186070470C0500500548006880F308887C
:100C300062B661B6BFF34F8FBFF36F8F00DF00BFA7
:100C400000000000064B19680868B0E8F04F80F318
:100C50000988BFF36F8F4FF0000080F31188704751
:100C6000901A0020EFF30980BFF36F8F144B1A68BE
:100C70001EF0100F08BF20ED108A20E9F04F106021
:100C80004DF8043D4FF0400080F31188BFF34F8FC3
:100C9000BFF36F8F00F016FD4FF0000080F3118856
:100CA00008BC19680868B0E8F04F1EF0100F08BFC4
:100CB000B0EC108A80F30988BFF36F8F704700BFD4
:100CC000901A0020F8B50F4CFFF780FD2568ADB9EC
:100CD0000D4F0E4E3846FFF756FF3046FFF753FFD5
:100CE0000B4B1F600B4B2A46102120201E60FFF784
:100CF00041FE206010B10849FFF7F8FEBDE8F8405A
:100D0000FFF77EBD881A00205C1A0020701A0020B0
:100D1000541A0020581A002086D90000914208B5C4
:100D2000416000610AD8D21A83699A420DD2084BF9
:100D3000011D1868FFF735FF002008BD9A4201D257
:100D4000994202D2011D034BF3E70120F5E700BFF2
:100D5000581A0020541A002070B504460D46164655
:100D6000A1692B46324629442046FFF7D7FF00B938
:100D700070BDA36920461D44236A9847F0E7000030
:100D800070B50E4B1B68DB68DC680546201D0E46FF
:100D9000FFF71EFF94F824305A0709D5324629463A
:100DA0002046FFF7D9FF236A2046BDE87040184768
:100DB00023F0010384F82430F5E700BF541A002023
:100DC00010B5084C23681A6822B9074A11681360E5
:100DD000216010BDDB684FF0FF311868FFF7D0FFCE
:100DE000F0E700BF541A0020581A00202DE9FF47F1
:100DF000624DDFF898812E46D8F80020136833B38F
:100E0000D368D3F80090002400F0AEFA00F0B4FAF2
:100E10002B685B4F984282461CD328601CB3594B09
:100E20001B681A68B2FA82F25209A9EB0A01386803
:100E3000FFF786FE00F06AFB90B9534B4FF08052EB
:100E40005A6040BFBFF34F8FBFF36F8F08E001249C
:100E50009946D9E7FFF7B4FFC5F800A000F056FBAC
:100E6000DFF82CA126E0814506D800F04FFB514663
:100E70004846FFF785FFF3E72246D6E794F824308B
:100E8000A16943F0010384F82430019B4A461944C8
:100E90002046FFF743FF68B194F82430590743D543
:100EA000A36901994A4619442046FFF755FF236A72
:100EB00020469847002269463868FFF783FD0028DE
:100EC0009AD0009B002B03DADDE90201019B9847D1
:100ED000009B002BEEDB029C636913B1201DFFF722
:100EE00077FE00F049FA33689842814601D2FFF755
:100EF00067FF009BC6F80090013B082BDAD801A2DF
:100F000052F823F07D0E00007D0E0000330F00002C
:100F1000410F00006D0F00007D0E00007D0E0000EF
:100F2000330F0000410F000023F0010384F8243048
:100F3000BDE794F8243023F0010384F82430B9E7A6
:100F400094F8243043F0010384F82430019BA3611A
:100F500023B951464FF45D7001F0C8FDA1694B46BD
:100F60004A4649442046FFF7D9FEA3E794F82430C7
:100F70009A07E0D42046FFF701FA9BE7841A002085
:100F8000881A0020581A002000ED00E0541A0020B2
:100F90008BD9000007B5FFF795FE0C4B1B6843B9D2
:100FA00040F219100A4901F0A1FD002003B05DF8DC
:100FB00004FB084B019302230093502200230649AF
:100FC000064800F0A5F80028EAD0EFE7881A0020CC
:100FD0008BD900008C1A002094D90000ED0D000080
:100FE000F8B5214B214E1C680546306804300F4689
:100FF000FFF7EEFD334640B931681D4EC96A3268CD
:101000000120884022EA000232606A1C14D19FB19C
:10101000184A18685168816018688C68C46018683C
:101020008C680430606018681B68043088605A61FE
:10103000136801331360F8BD1A686419546007D34C
:101040000D4A10681968BDE8F8400431FFF7A9BDE2
:101050000A4A106819680431FFF7A3FD084B1A68A3
:10106000A24288BF1C60E6E7641B0020901A0020A3
:10107000E81A00203C1B0020981A0020941A002037
:10108000181B0020064A13681968064B19B94FF05F
:10109000FF321A6070471268D2681268F9E700BF21
:1010A000941A0020181B002080B5144C144F154EC4
:1010B00023686BB9144B1B68012BF8D9134B4FF005
:1010C00080525A6040BFBFF34F8FBFF36F8FEEE780
:1010D000FFF77CFBFB68DD68281DFFF779FD3368AF
:1010E000013B33602368013B2360FFF789FB286BDA
:1010F000FFF744F92846FFF741F9D9E7DC1A002049
:10110000501B0020D81A00209C1A002000ED00E09F
:101110002DE9F84F9600814630460F469A46DDE9A4
:101120000A58FFF7C7F88346002800F0A38048203C
:10113000FFF7C0F80446002800F0998048220021FB
:1011400004F0AEFE3246C4F830B0A521584604F093
:10115000A7FE236B043E1E4426F00706002F40F036
:101160008C80022D05D9524940F2963001F0BEFC28
:101170000225271DE562A5633846FFF70FFDC5F17F
:10118000030504F11800FFF709FD2461A5616462FD
:10119000524649463046FFF7A3FA2060B8F1000FE7
:1011A00001D0C8F80040FFF711FB424B424E1A68CD
:1011B000DFF8388101321A603268002A6DD134605C
:1011C0001B68012B1FD13D48DFF824913C4DFFF7F0
:1011D000DAFC3C48FFF7D7FC3B48FFF7D4FC484615
:1011E000FFF7D1FC2846FFF7CEFC3848FFF7CBFCD1
:1011F0003748FFF7C8FC3748FFF7C5FC364BC3F844
:101200000090364B1D60364AE16A13680133136063
:10121000344A0125106805FA01F303431360274A95
:10122000142303FB01214868A0608168E1608168A4
:101230004F608760E16A4B43D1186161D1582944FE
:10124000D150FFF7DDFAD8F800306BB13368DA6AB5
:10125000E36A9A4208D2244B4FF080525A6040BF52
:10126000BFF34F8FBFF36F8F2846BDE8F88F584606
:10127000FFF784F84FF0FF35F6E77B1E04F13402E8
:10128000033713F8011F02F8011B197809B19F42B7
:10129000F7D1002384F8373063E7D8F80030002B0B
:1012A000B1D13368E26ADB6A9A4228BF3460AAE7A8
:1012B0009CD90000D81A0020901A00209C1A002007
:1012C000001B0020B01A0020C41A0020241B00209C
:1012D000501B00203C1B0020941A0020981A00206C
:1012E000E41A0020E81A002000ED00E0381B00207E
:1012F000EC1A002013B5144B0193002400942346EC
:101300003C2212491248FFF703FF012814D1FFF7CE
:1013100041FE012810D1402383F311880D4B4FF07B
:10132000FF321A600C4B18600C4B1C60FFF7EAF997
:101330000B4B1B6802B010BD0130F9D1094940F6D2
:10134000170001F0D3FBF3E7141B0020A4D9000021
:10135000A9100000181B0020381B0020641B00206F
:10136000040000209CD90000024A13680133136076
:10137000704700BFE01A0020014B1868704700BF9B
:10138000641B00202DE9F74F544B1B68002B40F0E5
:101390009E80534B1C6801341C609CB9514D2B68D6
:1013A0001B6823B1504940F6EB2001F09FFB4F4BE7
:1013B0002A68196829601A604D4A1368013313605E
:1013C000FFF760FE4B4901910B689C424FF0000013
:1013D00007D2494B1B68002B18BF012003B0BDE8A2
:1013E000F08F404EDFF820C1444D07464FF0010A10
:1013F0004FF0140833681B6823B9019A4FF0FF338C
:101400001360E6E73368DB68DB685A68944202D20F
:10141000019B1A60DDE7D3E90221D3F814909160B3
:10142000D3E902125160D9F8042003F1040E724589
:1014300004BFDA68C9F804205F61D9F80020013AD6
:10144000C9F80020D3F82890B9F1000F14D0D3E9DF
:1014500007219160D3E907125160D9F8042003F104
:10146000180B5A4504BF1A6AC9F804209F62D9F8BC
:101470000020013AC9F80020DA6ADCF800B00AFA64
:1014800002F908FB025249EA0B0952689A60916816
:10149000D9609168CCF80090C1F804E0C2F808E087
:1014A000DA6A08FB02F205EB020EC3F814E055F805
:1014B00002E00EF1010E45F802E0114AD2F800E018
:1014C000DA6ADEF82C309A4288BF012092E70D4A92
:1014D000136801331360002080E700BFE01A00208A
:1014E000641B0020941A00209CD90000981A002048
:1014F0001C1B0020181B0020681B00209C1A0020C9
:10150000901A0020201B0020E81A00202DE9F84F37
:101510004F4C236823B94F4940F68A0001F0E6FAA0
:10152000FFF754F92368013B236023682BB10024A3
:10153000FFF766F92046BDE8F88F474A1268002A8F
:10154000F5D04648464C4749DFF828C198469E46A4
:101550000125142659E0C368DB68D3E90727D3F8CF
:1015600028909760D3E907725760D9F8042003F1F7
:10157000180A524504BF1A6AC9F80420C3F8288023
:10158000D9F80020013AC9F80020D3E90227D3F89E
:1015900014909760D3E902725760D9F8042003F1E0
:1015A000040A524504BFDA68C9F80420C3F814E0FD
:1015B000D9F80020013AC9F80020DA6AD4F800B05E
:1015C00005FA02F906FB021249EA0B095268C4F84F
:1015D00000909A609768DF609768C7F804A0C2F827
:1015E00008A0DA6A724301EB0209C3F8149051F8BB
:1015F000029009F1010941F80290DCF80020DF6A4D
:10160000D26A974201D9184A15600268002AA2D10D
:101610000BB1FFF737FD154D2C6844B1124E012771
:10162000FFF7B0FE00B13760013CF9D12C600E4BE2
:101630001B68002B3FF47BAF0D4B4FF080525A607C
:1016400040BFBFF34F8FBFF36F8F012470E700BF20
:10165000E01A00209CD90000D81A0020241B00208A
:10166000E81A00209C1A0020681B0020201B002084
:1016700000ED00E0901A002010B5044648B90E4B6A
:101680004FF080525A6040BFBFF34F8FBFF36F8F50
:1016900010BD0A4B1B6823B109494FF4A46001F047
:1016A00025FAFFF761FE00212046FFF799FCFFF7BE
:1016B0002DFF0028E3D0EBE700ED00E0E01A00206A
:1016C0009CD9000038B5154B1A68154B12B1012290
:1016D0001A6038BD1A60134B134D1C68B4FA84F4B9
:1016E000C4F11F0414236343EB5823B90F4940F698
:1016F0002A4001F0FBF9142202FB04F3E918083335
:101700004868406848602B44984204BFCB684B60EF
:1017100002FB04546368DA68054BD9E7E01A00203D
:10172000681B0020E81A00209C1A00209CD90000A9
:10173000901A002038B50D46044620B9084940F6F5
:10174000424001F0D3F9074B196820461831FFF7E2
:1017500028FA28460121BDE83840FFF741BC00BF08
:101760009CD90000901A002070B50D46164604461C
:1017700020B9114940F6784001F0B8F90F4B616883
:101780001A68D1611A688868106218688A68183007
:10179000506018681B68183088609C6223680133A9
:1017A000002E236031460CBF28464FF0FF30BDE8C5
:1017B0007040FFF715BC00BF9CD90000901A0020B4
:1017C00038B5C368DC6824B92F4940F6A84001F059
:1017D0008DF9D4E90721A36A9160D4E90712516019
:1017E0005A6804F118018A4204BF226A5A60002232
:1017F000A2621A68013A1A60244B1B68002B35D18B
:10180000D4E9022163699160D4E9021251605A68F7
:10181000201D824204BFE2685A60002262611A6899
:10182000013A1A601A4AE16A156801238B402B437A
:101830001360184A142303FB01214968A1608D68D5
:10184000E5608D6868608860E16A4B43D11861612A
:10185000D1580131D150104BE26A1B68DB6A9A42C1
:1018600083BF0E4B01201860002038BD0C4B5A6816
:10187000E261906820629068416091601A68A3629A
:1018800001321A60E7E700BF9CD90000E01A00208F
:10189000E81A00209C1A0020901A0020681B0020E3
:1018A000241B0020034B1B680360034B1B68436031
:1018B000704700BF1C1B0020641B002070B50D4644
:1018C000044620B9154940F6235001F00FF925B917
:1018D000124940F6245001F009F9FEF777FF104B4A
:1018E0001A682B68591C16D00E4826680068616873
:1018F000864208D0914206D800232B600124FEF7CF
:101900007FFF204670BD521A9342F5D99B1A2B6077
:101910002046FFF7C7FF0024F1E700BF9CD9000075
:10192000641B00201C1B0020014B01221A60704721
:10193000681B0020054B1B6833B1054B1B68002B4F
:101940000CBF02200020704701207047381B002088
:10195000E01A002008B5EFF31183402383F31188C8
:10196000FFF710FD20B1044B4FF080525A6040BF8A
:10197000002383F3118808BD00ED00E0074BE0224F
:1019800083F82320064B074A1B6803F500739B0A64
:10199000013B536007231360704700BF00ED00E078
:1019A0001400002010E000E01FB500220091022387
:1019B00069460430CDE90132039203F08FFA05B095
:1019C0005DF804FB38B5054D0A2445F001054FF4D8
:1019D0007A40A847013CFAD138BD00BFB0D9000019
:1019E00073B502AC0E2324F8043D374E2146306017
:1019F000FFF7DAFF0546C0B1344A182100F0DDFDDB
:101A0000284602B070BD314A2221F7E72F4A2C2127
:101A1000F4E72E4A3621F1E72C4A4021EEE72B4A23
:101A20004A21EBE7294A5421E8E7FFF7CBFF0223DD
:101A300021463068ADF80430FFF7B6FF05460028B0
:101A4000E1D1FFF7BFFF4FF4804321463068ADF886
:101A50000430FFF7A9FF05460028D7D1FFF7B2FFF2
:101A600048F2010321463068ADF80430FFF79CFFCF
:101A700005460028CDD1FFF7A5FF4FF400432146CE
:101A80003068ADF80430FFF78FFF05460028C3D15A
:101A9000FFF798FF44F2030321463068ADF80430A5
:101AA000FFF782FF05460028B9D1FFF78BFF4023DF
:101AB00021463068ADF80430FFF776FF0546002870
:101AC000B0D1FFF77FFF9BE76C1B0020B6D9000069
:101AD0002DE9F34107460C4604F0B2FB10280646F8
:101AE0003CD85CBB02A9202321F8043D1F4B186899
:101AF000FFF75AFF0446C8B9DFF870800025B542E9
:101B000038BF7B5DD8F8000028BF20239A0862F018
:101B10007F029B0101A98DF804208DF80530FFF7A5
:101B200043FF0446F0B1124A8E2101E0104A6D21B4
:101B300000F043FD204602B0BDE8F081012C0FD13A
:101B400002A9302321F8043D084B1868FFF72CFF49
:101B500004460028D0D0064A7521E9E70924E9E7C0
:101B60000B24E7E70135102DC9D1E3E76C1B0020FA
:101B7000B6D9000038B5054D044645F001054FF4CF
:101B80007A40A847013CFAD138BD00BF90DA000086
:101B90007FB506460D46144672B601F06DFF01F0A2
:101BA0009DFD0028FBD1374804F0C4F944F201033D
:101BB0009E4254D044F202039E425ED12288616864
:101BC000314804F0B7F902F00BFD08B902F0D2FC7D
:101BD0000023ADF80C308DF80E3003A90123192035
:101BE0008DF80D3002F006FD03A9182002F002FD69
:101BF00003A9172002F0FEFC192002F0B7FD1820FF
:101C000002F0B4FD172002F0B1FD4FF4FA70FFF7B7
:101C1000B1FF192002F07CFD182002F079FD172099
:101C200002F076FD3220FFF7A5FF192002F09EFD9D
:101C3000182002F09BFD172002F098FD4FF4FA7077
:101C4000FFF798FF192002F063FD182002F060FDF5
:101C5000172002F05DFDFA20FFF78CFFCCE7A668A5
:101C6000304602F02DFA236801950093024663681E
:101C70000648314604F05EF9A5E72946044804F019
:101C800059F9A0E70FDA000028DA000043DA000073
:101C90006DDA000007B502F0A3FC08B902F06AFC97
:101CA0000023ADF804308DF8063001A90123192076
:101CB0008DF8053002F09EFC01A9182002F09AFC74
:101CC00001A9172002F096FC192002F04FFD182000
:101CD00002F04CFD172002F049FD4FF4FA70FFF7B7
:101CE00049FF192002F014FD182002F011FD172001
:101CF00002F00EFD3220FFF73DFF192002F036FD05
:101D0000182002F033FD172002F030FD4FF4FA7076
:101D1000FFF730FF192002F0FBFC182002F0F8FC5E
:101D2000172002F0F5FCFA20FFF724FFCCE77047FC
:101D30007FB5400003AB8DF80C108DF81500002125
:101D40000B480493009102238DF80D208DF8143078
:101D500004AA012340688DF8161002F02BFB18B17D
:101D6000044A3A2100F029FC07B05DF804FB00BFEB
:101D7000C01F0020A8DA000000B589B00F238DF83D
:101D80000E300DF10E030493012398408DF81500D9
:101D9000184300218DF81D000E4800910DF10F022F
:101DA0008DF814308DF8163006928DF81C3004AA88
:101DB000022340688DF80F108DF81E1002F0FAFA19
:101DC00018B1054A302100F0F8FB9DF80F0009B06A
:101DD0005DF804FBC01F0020A8DA000000B589B040
:101DE00008AB069203F8111D0493012398408DF867
:101DF000150040F0010000218DF81D000B488DF802
:101E000014308DF81630009106238DF81C3004AA8A
:101E1000022340688DF81E1002F0CCFA18B1044A73
:101E2000262100F0CAFB09B05DF804FBC01F0020AA
:101E3000A8DA0000084B5B7A012B07D002D3022BF3
:101E400007D07047054B064A1A607047034B054A96
:101E5000FAE7024B044AF7E7C01F0020B81F002032
:101E6000295C0F3C295C8F3C295C8F3D0A4B1B7E13
:101E7000032B06D8DFE803F0020C0609074B084ADB
:101E80001A607047054B074AFAE7044B064AF7E722
:101E9000024B064AF4E700BFC01F00209C1F002031
:101EA00040DA7F3840DAFF3840DA7F39B0E33F3A32
:101EB0000A4B93F82130032B06D8DFE803F0020623
:101EC000090C074B074A1A607047054B064AFAE7A8
:101ED000034B064AF7E7024B054AF4E7C01F002010
:101EE000BC1F0020F7CC1239240B98399F71E139BF
:101EF000240B183A014B5878FFF73EBFC01F002053
:101F0000014B9878FFF738BFC01F002010B5284C50
:101F1000237A13B1A27A5201D3B2E27A617A60785D
:101F200002F0030242EAC1021A43D2B21021FFF7C3
:101F3000FFFE002211216078FFF7FAFE227B637B0F
:101F4000002A18BF80222BB1A37B03F00F0343F0BC
:101F500040031A4312216078FFF7EAFE627D237D79
:101F6000002A18BF20220BB142F01002E37C13B10B
:101F700042F00802D2B2A37D13B142F00202D2B203
:101F80001E216078FFF7D4FEE27B237C002A18BF75
:101F900020220BB142F01002637C13B142F0080220
:101FA000D2B260781321BDE81040FFF7C1BE00BF78
:101FB000C01F002010B51B4C227FE37E002A18BFF3
:101FC00020220BB142F01002A37E13B142F00802AE
:101FD000D2B21F216078FFF7ABFEE27D12B1627EC4
:101FE0005201D2B2237E607842EAC30294F91D30D6
:101FF000D2B2002BA2BF42F0040203F003031A4343
:102000002021FFF795FEA27F2AB1E27F520102F064
:10201000600242F0800260782121BDE81040FFF7A5
:1020200087BE00BFC01F002010B51D4C94F824309F
:1020300094F8221094F82320A0785B018900002AEC
:1020400001F01C0103F0600343EA010318BF802282
:102050001A432021FFF76CFE94F82120A07821215B
:10206000FFF766FE94F8263094F82720A078002B1E
:1020700018BF202302F003021A432221FFF758FE63
:1020800094F82520A078920002F00C022321FFF79B
:102090004FFEA07800222421BDE81040FFF748BE83
:1020A000C01F002000B51A4B8BB005AA5878282114
:1020B000FFF794FE174B9DF81720D3ED007A9DF89B
:1020C000163043EA02231BB29DF8192000EE903A25
:1020D0009DF8183043EA02231BB201EE103A9DF836
:1020E00015209DF8143043EA02231BB200EE103A8B
:1020F000F8EEE00AB8EEC11AB8EEC00A60EEA70A20
:1021000020EE270A21EE271A0BB05DF804FB00BF72
:10211000C01F00209C1F002000B5234B8BB005AAD8
:1021200058781821FFF75AFE9DF815209DF81430B5
:1021300043EA02231BB206EE903A9DF817209DF861
:10214000163043EA02231BB207EE103A9DF819201D
:102150009DF8183043EA02231BB201EE103A134BEC
:102160001A78134BF8EEE66AB8EEC77AF8EEC17A41
:102170008AB193ED006A0F4B93ED000AD3ED010A8B
:1021800093ED021A96EE860AD6EE070A96EE271A05
:102190000BB05DF804FB93ED001A26EE810A67EEA2
:1021A000010A27EE811AF3E7C01F00200800002073
:1021B000B81F0020A01F00202DE970432DED048BD7
:1021C000434C444D96B04FF47A76FFF7A5FFD4ED1B
:1021D000007A37EE800A84ED000AFFF79DFFD4ED08
:1021E000017A77EEA00AC4ED010AFFF795FFD4ED5E
:1021F000027A37EE811A84ED021AFFF753FFD5ED0C
:10220000007A37EE800A85ED000AFFF74BFFD5ED27
:10221000017A77EEA00AC5ED010AFFF743FFD5ED7D
:10222000028A78EE818A013EC5ED028ACDD19FED0A
:102230002A8A95ED017AD4ED006AD5ED007A274D12
:1022400087EE089A86EE887AD4ED016A85ED007AE9
:1022500086EE887AD4ED026A85ED017AC7EE887A37
:1022600086EE887A17EE900A85ED027A0AF0D8FD9C
:10227000C8EE887A8046894617EE900A0AF0D0FDAB
:10228000CDE9020119EE100A0AF0CAFD42464B469A
:10229000CDE90001124803F04DFE28680AF0C0FDA8
:1022A0008046A86889460AF0BBFDCDE9020168684E
:1022B0000AF0B6FD4246CDE900014B46094803F05D
:1022C00039FE304616B0BDEC048BBDE8708300BF0C
:1022D000AC1F0020901F002000007A44A01F0020A7
:1022E000FDDA00001FDB00003C4B37B558604FF4AF
:1022F0008070588240F201109882D8820620587669
:10230000FF2058770220D87783F8210046F6012273
:10231000052140F207101A805981588400211C229F
:1023200040F203302E4C9A70D9810122198219761D
:102330009884D9842B482C491A725A729A819A76B9
:10234000DA761A779A7783F8202083F828200023FA
:10235000236003600B60636043604B60A360234CA9
:1023600083602270224A8B6092E803006B4683E808
:102370000300204A2048194602F08EFE20B11F4A71
:1023800040F2971100F019F9FFF754FDFFF790FDA7
:10239000FFF76CFDFFF7AEFD0546FFF7B1FD40EA24
:1023A000052000B246F63D03984214D1FFF7AEFD7A
:1023B000FFF700FEFFF738FE00232370FFF7FCFE57
:1023C00020B10E4A40F2B91100F0F7F80123237052
:1023D000002003B030BD4FF0FF30FAE7C01F0020EF
:1023E000A01F0020AC1F0020901F0020080000202C
:1023F00098DA00002F1D0000A0DA0000A8DA000023
:102400000369C1688B429DBF8268D21802F1FF3216
:1024100003F1FF3394BF501A581A70472DE9F04169
:10242000D0E902670446F61B406896428846154686
:10243000384405D903F09AFC3D44E560BDE8F081DD
:102440003246AD1B03F092FC2A4608EB0601606899
:1024500003F08CFCF1E72DE9F843C5680646894690
:1024600017464FF000083469B3687068A54228BF6A
:10247000E418013C621B5C1BBC4228BF3C469442F2
:1024800028BF144649462844224603F06FFCB3682F
:102490002544AB4208BF00253F1BA044A144F56082
:1024A000E1D14046BDE8F88310B5114C114AA26154
:1024B0000223C4E90433104BE361A2644FF40073B8
:1024C0000E4A2362E264002310220D49A362E01D3C
:1024D0006362E362A3656365E365226503F04EFE14
:1024E0000849204603F04AFE2023A37110BD00BF17
:1024F000AC2A002042DB0000FC1F0020EC1F002063
:102500004BDB00004FDB0000F8B5184C182300FB34
:10251000033503FB00402544C46A012C0F461646D0
:1025200011D003D3022C1BD000240AE02846FFF769
:1025300067FF864205D8324639462846FFF76EFFC8
:1025400034462046F8BD2846FFF75AFF86423446F7
:1025500028BF0446224639462846FFF75FFFF0E7CA
:102560002846BDE8F840FFF776BF00BFAC2A002040
:1025700070B50B4B1B7804460D4616460BB9FFF79A
:1025800093FF002000F0EEF9324629462046FFF77F
:10259000BBFF0446002000F0F5F9204670BD00BFE7
:1025A000AC2A0020FFF780BF10B511461C461A4622
:1025B0000020FFF7DDFF204610BD00B583B002907C
:1025C0000091019244F2010071466A46FFF7E0FA79
:1025D00003B000BD024B4FF43C6043F001031847C9
:1025E00060DB0000F8B51F491F4B0025C1F84051C2
:1025F000C1F84451C1F84851C1F84C51C1F80051DB
:10260000C1F804511B684BB3D1F804451749096858
:10261000641A24F07F442F461A68A24209D8A41AEB
:1026200015441A7CDE691AB11F74D3E9052090475E
:10263000AEB90F4B0F4A197813788B4205D101338D
:10264000DBB2022B08BF0023137012780A4B43F849
:1026500022500A4B4FF48012C3F80021F8BD3346D4
:10266000DAE700BF001001401C23002018230020DF
:1026700014230020152300200C23002000E100E09B
:102680002DE9F74F9C4A9D49137809789C4D994252
:102690003CD00133DBB2022B08BF002313709949F1
:1026A0001278994B0F6853F822003B1823F07F43B0
:1026B00000220B602B6816461446944613B942B1AB
:1026C0002B6006E0196881420ED902B12B60091A0D
:1026D00019604FF001082B68DFF834A2009300273F
:1026E000BEB9DFF834B260E0401A0C44D968C3F8D0
:1026F00000C0D3F81CE031B13A1922F07F42C3E99F
:102700000121DE611E4601227346D7E70026B0464E
:10271000E1E73446F6697B4A63681268DFF8FCC17A
:10272000A068991A21F07F41614500F2A58001441B
:102730002160012222742A680023C4E90133E36185
:10274000002A40F0A2802C60CAE75A1C9BF80210B5
:10275000D2B291428BF8002004BF00228BF80020F7
:10276000182202FB03B32A6819799C68022974D0E5
:1027700003297ED0012918D1217CB1B9DA686260C1
:102780001A69A2605A69E2609B69A3615F4B1B787A
:10279000002BC0D06160BEE79C4200F0908099465B
:1027A000DB69002BF8D1002323749BF800309BF8E1
:1027B00001209A42C9D12B682FB9009A934202D1C5
:1027C000B8F1000F43D0002B41D0D3F800A0504DFA
:1027D0004C4BD5F804751C68DFF844813E1B98F813
:1027E000003026F07F4603369BB94FF48033C5F89E
:1027F0004433C5F80433474B4FF400324FF001091E
:10280000C3F880211A60C5F80090FFF7E3FE88F84E
:102810000090B2452CBF5444A41924F07F44C5F85D
:102820004045D5F80435DB1B23F07F43E41B03331D
:1028300024F07F44A3420AD9D5F80435C5F84035C1
:10284000FFF7C8FE334B4FF40032C3F800212F4B83
:1028500000221A7003B0BDE8F08F13469146A0E73E
:102860001174D2690123002AFAD1002B9DD02A606D
:102870009BE700231946F6E7D31A23F07F438342F0
:1028800034BFC31A0023236053E7216813689942B9
:1028900013D8591A1160E26155E7091AD8691A4626
:1028A00038B1034618688842F7D3401A18601846B2
:1028B00013462160E061DC6112E71346F2E74C4504
:1028C0000DD1D3692B6053B90E4801920121CAF88A
:1028D000081003600D4B1970FFF77CFE019AE16947
:1028E0002368C9F81C1011B1086803440B602B68F9
:1028F0009A4218BF012756E7142300201523002011
:102900001C230020182300200C2300200823002073
:102910000010014000E100E0FC210020FEFF7F00EC
:102920000923002072B6024A13680133136070470E
:1029300020230020034A1368013B136003B962B6E9
:10294000704700BF20230020EFF30583C3F3080383
:102950002BB9EFF31480C04300F001007047012051
:102960007047000008B5FFF7EFFF012803D00449C6
:10297000432000F0BBF8BDE80840FFF7D3BF00BF1D
:1029800066DB000008B5FFF7DFFF012803D004492C
:10299000512000F0ABF8BDE80840FFF7CBBF00BF07
:1029A00066DB0000024B1B680021986803F0D6BA72
:1029B000180000201EF0040F1CBFEFF309800AE08E
:1029C000EFF308800549064A884201D8904202D8B0
:1029D0008D464FF00000034B184700000000012017
:1029E00000E00020E92900002DE9F347054601F049
:1029F00043F800F073FE0028FBD12F4B2F4C9F6A49
:102A00002F4BE41AE408240444F00104002D4ED0B6
:102A1000AA692C49204600F0E1FFEB680193AB68FE
:102A200000932949D5E90023204600F0EDFFEB692A
:102A300000932649D5E90423204600F0D9FF1E4B18
:102A4000DB6A980703D52249204600F0C3FFDFF870
:102A50009490DFF894A000264FF0010808FA06F3DE
:102A60003B4206D059F826201AB15146204600F0C4
:102A7000B5FF01361A2EF1D1390605D50E4B154991
:102A80005A6B204600F0AAFF3A0405D50A4B1249BA
:102A90009A6B204600F0A2FF104B1B68DB0700D5A5
:102AA00000BE2846FFF7F6F802B0BDE8F0870C49F3
:102AB000204600F08FFFC2E700ED00E060F100006B
:102AC000F8F00000C9DB0000DEDB000013DC0000D2
:102AD0006EDC0000BDDC0000DDDC0000F0ED00E09D
:102AE0003BDC0000F8DC0000B2DC000007B5ADF80C
:102AF000000001916A46002144F20200FFF748F805
:102B000003B05DF804FB50E8002F0B4640E8003CA2
:102B10009CF0000FF7D11046704750E8003F43EAA1
:102B2000010240E8002C9CF0000FF6D110467047DF
:102B300050E8002F02EA010340E8003C9CF0000F3F
:102B4000F6D11046704750E8003F03EB010240E821
:102B5000002C9CF0000FF6D11046704750E8003F63
:102B6000A3EB010240E8002C9CF0000FF6D11046C8
:102B700070470121FFF7D1BF0021FFF7D9BF000047
:102B800010B50446002834D003681BB91A49FF2049
:102B9000FFF7ACFF636823B917494FF48070FFF764
:102BA000A5FFA36823B9144940F20110FFF79EFF67
:102BB000E36823B910494FF48170FFF797FF238A28
:102BC00023B90D4940F20310FFF790FFD4E9012328
:102BD00021689B1ADBB20A60013BDBB2FF2B226843
:102BE00002D10020107110BD1168481C10600B70DC
:102BF000F2E70E20F7E700BF20E2000038B50446F8
:102C000020B912494FF49270FFF770FF0020FFF7D0
:102C1000A9FE2268616813688B4215D9591E11609C
:102C200013F8015C228AE36802FB05352268A36879
:102C300011685B1A1179DBB2994200D2137100203E
:102C4000FFF7A0FE284638BD0025F8E720E2000087
:102C500038B50C46054620B90E4940F24710FFF73B
:102C600045FF24B90B494FF4A470FFF73FFF002044
:102C7000FFF778FE2A681368591C1160EA68A41AE5
:102C80002A8AB4FBF2F41C700020BDE83840FFF73C
:102C900079BE00BF20E2000038B5084C04F10803FB
:102CA0000546002818BF1C4623682BB11A6822600D
:102CB0005B6828469847F7E738BD00BF2C23002003
:102CC00020B9054B01225A70FFF7E6BF012802D157
:102CD000014A9070F8E770472423002038B5094C6A
:102CE00023786BB908486360A3602361E36001F057
:102CF000A1FB054601F0B4FB01232370284638BD33
:102D00008525FBE724230020C12C00007FB5037834
:102D10008DF804304368029383688DF80C30C368E3
:102D2000049303698DF81430054A064B01A853F843
:102D3000213052F82110984707B05DF804FB00BF1E
:102D40003823002044230020F0B50646944616F8A8
:102D5000047B194A42F827C0184A42F82730184B1A
:102D60000C460FCB85B06D4685E80F0023788DF8B3
:102D7000003063788DF80130A3788DF80230E37865
:102D80008DF8033023798DF8053063798DF806309E
:102D9000A3680293237B8DF80C30BCF1000F637B9A
:102DA0008DF80D30074A3B4608BF002229463046C1
:102DB00001F08AFF05B0F0BD442300203823002035
:102DC00084E200000D2D00001FB503788DF800305F
:102DD00003798DF8043043798DF8053083688DF8D8
:102DE0000630C3688DF80730036902934369039383
:102DF000054A064B684653F8213052F8211098478F
:102E000005B05DF804FB00BF5023002058230020CC
:102E100002494FF4F370FFF769BE00BFA6E200005D
:102E20001F2810B5044601D9FFF7F2FF012303FA6A
:102E300004F44FF0A043C3F8084510BD024B4FF413
:102E4000807043F001031847A0E200002DE9F14F24
:102E5000924690F80080364A42F828A0354A42F857
:102E600028304B7B81460C467BB30B684FF0A04566
:102E700003F5E07340F20C6245F823204B6803F53C
:102E8000E073002645F823200868FFF7C9FF606853
:102E9000FFF7C6FF236803F5E07340F20D6245F8C3
:102EA0002320636803F5E0734FF0010B45F82320FE
:102EB000FFF7C4FF67681F2F01D9FFF7A9FFD5F8F7
:102EC0001035FB40DB070ED506BBBAF1000F1A4ADE
:102ED000434608BF0022214609F1040001B0BDE8C5
:102EE000F04F02F04DBA27681F2F01D9FFF790FF6E
:102EF0000BFA07F7C5F80C75FFF7A0FF013620683D
:102F0000FFF78EFFFFF79AFF092ED3D165681F2DBB
:102F100001D9FFF77DFF4FF0A0420123AB40C2F87B
:102F20000C35FFF78BFF6068FFF77AFFCDE700BF36
:102F30005823002050230020C92D000010B504465E
:102F400018B906493120FFF7D1FDA2682AB163699B
:102F50002168206998470023A36010BDF7E20000B4
:102F60000EB433B5059D044618B912494220FFF747
:102F7000BDFD63691BB90F494320FFF7B7FD236807
:102F80001BB90C494420FFF7B1FD63681BB909491F
:102F90004520FFF7ABFD3DB102AA06AB42F8043D68
:102FA0002946204600F06EF802B0BDE8304003B07C
:102FB000704700BFF7E20000826830B40468551C17
:102FC0008560A154D0E901329A4202D330BCFFF7A8
:102FD000B5BF30BC704700002DE9F84F9946DDE9D8
:102FE0000A431746824688460A460126BA420FD24D
:102FF0004E4538BF4E4613F0010B01D164B9002491
:103000000125B9F1010F1AD909F1FF397D43F8E71C
:10301000B2FBF7F20136E9E79B070ED5B9F1000FD5
:103020000CBF30252025A642EAD2013C2946504655
:10303000FFF7C2FF002CF6D1E1E72025F3E7B8FB4C
:10304000F5F39F42E2D9DFF83890B8FBF5F350462C
:1030500019F8031005FB1388FFF7AEFFB5FBF7F572
:10306000002DF2D1BBF1000F02D00CB1A64201D36A
:10307000BDE8F88F20215046013CFFF79DFFF4E7A3
:103080004BE300002DE9F74F0E469046054620B968
:10309000AC494FF4A270FFF729FD6B6923B9A94928
:1030A0004FF4A370FFF722FD2B6823B9A54940F226
:1030B0004710FFF71BFD6B6823B9A2494FF4A470BA
:1030C000FFF714FD002E00F03A8116F8011B0029CD
:1030D00058D0252940F0D180002702E047F00107B1
:1030E0001646324612F8013B2D2BF7D0302B04D078
:1030F0002B2B05D147F00407F2E747F00207EFE773
:1031000000242A2B06F101021BD1D8F80030191D2A
:10311000C8F800101B6816461C4433782E2B1CD1AF
:1031200001364FF0000A314611F8012BA2F13000B0
:10313000092814D80A2303FB0A23A3F1300A0E46F8
:10314000F1E712F8013CA3F130010929E5D80A2181
:1031500001FB0434303C1646D3E74FF0000A3246F8
:1031600012F8011B01F0FB0068281646F8D0692907
:1031700016D054D8582970D00ED825297DD0337850
:10318000002BA2D12B7B002B00F0D980284603B066
:10319000BDE8F04FFFF7D2BE632968D06429EED1B5
:1031A000D8F80020111DC8F80010D2F8009089EA64
:1031B000E972A2EBE9724FF0010B092A61DCD345F9
:1031C00038BFD3462CB1B9F1000F01DB790700D528
:1031D000013CBA0702D5BAF1000F04D0FB0702D4B4
:1031E000002C54D10024B9F1000F58DAC9F10009BC
:1031F0002D212846FFF7E0FE07F00302022A05D141
:10320000BAF1000F02D1002C4DD10024CDE90047C6
:1032100053460A2249462846FFF7DEFEAFE77329E8
:1032200054D016D87029AAD1D8F800301A1DC8F881
:103230000020302128461C68FFF7BEFE7821284672
:10324000FFF7BAFE00220823CDE900322146102202
:10325000E1E775292FD0782991D1D8F800100A1DFF
:10326000C8F80020CDE90047534610222CE0D8F8DA
:1032700000301A1DC8F8002019782846FFF79CFE78
:103280007DE70A230BF1010B92FBF3F295E7A345CF
:10329000A9D220212846013CFFF78EFEA0E778073F
:1032A000AAD52B21A5E7A345B0D230212846013C61
:1032B000FFF782FEA7E7D8F80010CDE900470A1D06
:1032C000C8F8002053460A220968A4E7D8F800305D
:1032D0001A1DC8F80020F907D3F8009012D54F4600
:1032E000A7EB090B17F8011B41B9A345BFF447AF82
:1032F00020212846013CFFF75FFEF6E72846FFF74E
:103300005BFEEDE7B9F1000F17D0484602F098FFD9
:103310000746BC4200D954B909F1FF3919F8011F19
:1033200000293FF42CAF2846FFF746FEF6E72021A0
:103330002846013CFFF740FEEBE74F46E9E703B0C4
:10334000BDE8F08F5BE300007047000007B5044B59
:103350000093044A402300F032F803B05DF804FB08
:1033600069330000612300202DE9F84389461446A3
:10337000B2B10F4B0F4E0325002743F00108224640
:1033800009EB07010020FFF7BFF80744241A48B9EA
:1033900033782BB14FF47A40C047013D02D13570EC
:1033A000BDE8F88301233370002CE8D1F8E700BFB3
:1033B000D0E30000602300207047FFF7F3B8F0B5BA
:1033C00095B01C46164608460D4600F020FD1A9B97
:1033D0000D93CDE9086400242346082205A9284658
:1033E0000A948DF82C400C9400F03AFD079B029350
:1033F000BDF81830ADF80C30BDF81A30ADF80E300D
:103400009DF814308DF8114003F00302012A1DD1FC
:10341000BDF81440059EC3F3C203C4F383148DF8B2
:103420001030A20008230EA9284600F019FDC6F3AB
:10343000952608AB0093224602AB0EA9304600F059
:103440008BFB284600F0E7FC15B0F0BD022AF8D14E
:10345000BDF81640C3F3C203A4098DF81030082745
:10346000082C264628BF08263B4632460EA9284689
:1034700000F0F6FCA41B08AB02AA31460EA83744A4
:1034800000F0CEFB002CEBD1DBE7000008B5FFF726
:1034900094FF0421064800F0C5FA002803DA054924
:1034A0004120FFF723FB044B01225A7108BD00BFE6
:1034B000C8F10000E4E300000C000020037813F0E2
:1034C000040216D003F00303012B03D0022B09D012
:1034D000012070470A6800880232C0F3831002445A
:1034E0000A60F5E70B684288023303EB92130B6026
:1034F000EEE71046704700002DE9F04F484C87B0CA
:103500000D460646871C00200092FFF72BFA236821
:103510002B60D4E901231344226801339B1A04F27F
:103520001C4804F5836B04F21449BB4219D3009A7A
:103530000023002A6CD0012262F3010343F004034C
:1035400066F389132168A2680A4003320F44002001
:1035500044F822302760FFF715FA012007B0BDE8D4
:10356000F08F01214046FFF7EEFA5846FFF701FBC6
:103570000DF1180A4846FFF7FCFA60684AF8100D8A
:10358000A5682840033004EB80005146FFF796FF02
:1035900002460298002AF4D105EA000304EB8303F3
:1035A000811CDB6803930130054004EB850503F0C3
:1035B0000303012B0291ED6823D0022B08D0194997
:1035C00001924FF4BF70FFF791FA019A154607E098
:1035D000BDF80E309B0903332D0C01EB93030293CE
:1035E0004846FFF7C9FA08B1029B63602946404686
:1035F000FFF7A9FAD4E901231344226801339B1A87
:1036000093E7BDF80C30C3F383132D0C0B44E6E7AE
:10361000022262F3010343F0040366F39F5391E730
:103620007424002061E400000B4B0C48FF2210B50D
:103630009A600022C3F81824C3E90022C3F81424B6
:10364000012283F8202400F09BFB044610B90448B3
:1036500000F01CFC204610BD7424002078F100000E
:10366000C8E4000030B50A4C71B10A4A0A49121B7D
:10367000D20800239A4201D1002030BD31F82350F6
:10368000854202D00133F5E7034654F83300F4E7EE
:10369000F8F0000078F10000D8090020094B01394A
:1036A00003EBC000032909D8DFE801F00A02040691
:1036B00004207047007970474079704700207047B8
:1036C00002207047F8F00000034BD3E90030C31A22
:1036D00058425841704700BF742400202DE9F04340
:1036E00085B0FFF7F1FF0646002840F0F9807D4DD8
:1036F000C5F81804BFF34F8F6868AC6804AF47F88B
:10370000100D2040033005EB80003946FFF7D6FE50
:10371000009B18B1D5F81824002A5FD004EA0302F0
:10372000991C013305EB8202234005EB8303D26829
:10373000DB68029302F00303022B0192009162D135
:10374000BDF8063068484FEA9318B8F1500FC146EB
:1037500028BF4FF0500969F38F1309F10801ADF844
:10376000063000F025FB0746002800F0A48000F09A
:103770004EFB01A900230822384600F05BFB0099AC
:1037800024EA01060136B600B14535D95FFA89F958
:103790007EB3F6B2A9EB0609214003315FFA89F442
:1037A000B146524E05EB810108234A46384600F0E7
:1037B00041FB36B109F1080322463146384600F094
:1037C00039FB009B08F1030803EB98030093D5F83D
:1037D0001834002B4BD1D5F810445BE02A689A428C
:1037E00004D86A60304605B0BDE8F08304EA0300FF
:1037F00088E73E493446D7E72140033108234A464B
:1038000005EB8101DAE7012B55D1BDF804303648CC
:10381000C3F38311062928BF062161F389130231FE
:103820008900ADF8043000F0C3FA0746002842D002
:1038300000F0EDFA0023082201A9384600F0FAFA58
:103840000026BDF80420C2F38312B31C96424FEA4F
:103850008303BCD200994A1C21400331009205EB3E
:1038600081010422384600F0E5FA0136E9E73846DE
:1038700000F0D1FAFFF728FF80F00100C6B2B1E7EF
:10388000E3685B7923B1236839461B682046984773
:10389000E3681C68002CF3D1384600F0BCFA2046DF
:1038A000FFF760F8D5F818340BB9009B6B60002067
:1038B000FFF768F8DEE7D5F8104454B90C4B0D4813
:1038C0000D49C01AC008000440F0020000F082F860
:1038D000D0E7236820469B689847E3681C68ECE7BC
:1038E00000267FE77424002078F100008024002067
:1038F000F8F0000050F10000D4E400002DE9F74F8B
:103900002F4C80460F46914601A9012218469B463E
:10391000D4F808A0FFF7F0FD00283DD0019D002657
:10392000A91C5E4506EB010240D100212548FFF7A6
:10393000EAF880F3100B244B244A4FEA18499B1AEB
:10394000B9EBD30F04D3224940F2A310FFF7CEF80E
:103950006B1C03EA0A0304EB830349EA0B42DA60B7
:1039600005EA0A030333012114F8232068F3C50292
:1039700004F8232034F8232066F3891224F8232046
:1039800054F8232067F39F2244F8232061F30102B7
:103990006FF3820204F8232094F820341BB1FFF760
:1039A0009DFE0028FBD103B0BDE8F08F0AEA0202B9
:1039B00004EB820259F82630D3600136B1E700BF2C
:1039C000742400209028002078F10000F8F0000016
:1039D00061E4000000231A46FFF790BF13B502AC64
:1039E000012344F8042D2246FFF788FF02B010BDE2
:1039F0001FB5CDE90123069B039301AA0323FFF71B
:103A00007DFF05B05DF804FB1FB5CDE90023069BE3
:103A10000293079B03936A460423FFF76FFF05B0E9
:103A20005DF804FB30B5134AD2F810440023214658
:103A300051B9C4682371D2F810445CB9C2F81004BB
:103A4000C2681160184630BDC9680D799D420AD020
:103A50000968EDE7E468C16824680C60D2F81024B6
:103A6000D2681060EEE701330A2BE0D14FF0FF334C
:103A7000E8E700BF7424002038B5094A0123D2F8D2
:103A8000104482F820341D4604B938BDE3685D71E6
:103A9000236820465B689847E3681C68F4E700BF2A
:103AA0007424002010B5037A052B0C460FD0437AFE
:103AB00023B1084A08492046FFF752FA0749204631
:103AC000FFF74EFA2046BDE81040FFF737BA002A4C
:103AD000F8D0F3E71FE5000024E50000CDD8000092
:103AE00073B5C38804460D4633B1144A0092144995
:103AF000144A2846FFF734FA217A05291CD0637A44
:103B00004BB1A088FFF7CAFD0F4B104953F8202096
:103B10002846FFF725FA227A0D4BA08853F8226039
:103B20000021FFF79FFD0B4903463246284602B0AD
:103B3000BDE87040FFF714BA02B070BD1FE5000089
:103B40002FE5000027E50000ECE4000024E500007C
:103B500054E5000047E500002DE9F04385B01F461D
:103B60000C9D002306460C46904695F80C902B734E
:103B700029463846FFF7B4FFB8F1060F09D8DFE849
:103B800008F00412181F2833400031462846FFF77A
:103B9000E7F9002229463846FFF784FF85F80C90A4
:103BA00005B0BDE8F083226831462846FFF7D8F912
:103BB000EFE7D4E9002331462846FFF7D1F9E8E7DB
:103BC000A36800933146D4E900232846FFF7C8F9DB
:103BD000DFE7E3680193A36800933146D4E900234B
:103BE0002846FFF7BDF9D4E723690293E368019300
:103BF000A36800933146D4E900232846FFF7B0F9C3
:103C0000C7E76369039323690293E3680193A36899
:103C100000933146D4E900232846FFF7A1F9B8E71D
:103C200008292DE9F84F80460E4617461C4635D820
:103C3000002593F80C901D7319461046FFF750FFAE
:103C4000DFF88CA0DFF88CB0AE4229D918F8052037
:103C500059462046FFF784F90135082DF4D11A4959
:103C6000DFF874B02046FFF77BF94FF0000A5645A5
:103C700024D918F80A507E2D17D92E2259462046ED
:103C8000FFF76EF90AF1010ABAF1080FEFD101222C
:103C900021463846FFF706FF84F80C90BDE8F88F00
:103CA00051462046FFF75CF9D6E702F009F82844B0
:103CB000427812F0970FE0D02A46DFE7034920460A
:103CC000FFF74EF9DEE700BF1AE5000018E5000037
:103CD00016E5000010E500001CE500002DE9F74F97
:103CE00099469DF83030019388461746054618B925
:103CF0002249B620FEF7FAFEEA8895F805B00BFBDC
:103D000002FBABF1040BCB4503D81C49C420FEF7E2
:103D1000EDFE3E68B5F806A006EB09025A4509F12A
:103D2000040188BFABEB0906B1FBFAF43E600AFB65
:103D3000141144B9AAEB0107B74228BF37462EB980
:103D400003B0BDE8F08F2D68013CF2E7019A043121
:103D500008EB0403681872B101463A461846F61B90
:103D600002F004F8B2453C442D6857464FF000017C
:103D700028BF3746E3E73A461946F0E7B3E50000C7
:103D8000FEF7FEBEF8B546790146721E05460023D1
:103D900093422D6803D30024A64202D8F8BD013314
:103DA000F6E70F682846FEF753FF01343946F3E77C
:103DB0002DE9F843CD1C068A0746FEF71FFF043E97
:103DC00035440446B5FBF6F5F0B14FF48073EDB21F
:103DD0008380C680013D076081464FF00008A845FA
:103DE00012D23846FEF70AFF064648B1637901331E
:103DF000637108F10108C9F8000007608146EEE729
:103E00002046FFF7BFFF34462046BDE8F883012176
:103E10000430FEF798BE10B5012104460430FEF7C9
:103E20009DFE10F0FF0F04D12046BDE81040FFF7C3
:103E3000A9BF10BD30B585B0144604AA002542F8CC
:103E4000044D0095FFF74AFF039BA34203D00349AB
:103E5000F620FEF74BFE05B030BD00BFB3E5000015
:103E600030B585B0144604AA012542F8044D0095EA
:103E7000FFF734FF039BA34204D003494FF4807043
:103E8000FEF734FE05B030BDB3E5000082680023C4
:103E9000936082681361826853618268D36082682C
:103EA00053608268136070470268136852689342D7
:103EB00091BFD01A80680130801888BFC01A70473F
:103EC00038B50C46054618B904497720FEF70EFEB2
:103ED000AB68A3428CBF601C002038BD1AE600000E
:103EE00038B5044618B907498A20FEF7FFFD236854
:103EF00020461D685968FFF7E3FF431B58425841AD
:103F000038BD00BF1AE600002DE9F0410D46044619
:103F100018B92B499520FEF7E9FD1DB928499620CF
:103F2000FEF7E4FD0020FEF71DFD2046FFF7D8FF59
:103F3000804610B1237C002B3BD1276820467E6849
:103F40007968FFF7BDFF7860B8F1000F05D02768EA
:103F500020463968FFF7B4FF3860E2686068531E96
:103F6000072B20D8DFE803F004101F141F1F1F18B1
:103F70002B7883552046FFF797FF23689A68824283
:103F800000D29860002415E02B8820F81630F1E765
:103F90002B6840F82630EDE7D5E9002300EBC6009A
:103FA000C0E90023E6E7294606FB020001F0DEFE39
:103FB000E0E704240020FEF7E5FC2046BDE8F081A0
:103FC0001AE6000010B5044620B9064940F20A205E
:103FD000FEF78CFD236818685B68C31A5842584185
:103FE00010BD00BF1AE600002DE9F0410C469046D6
:103FF000054618B92249D920FEF778FD1CB9204999
:10400000DA20FEF773FD0020FEF7ACFC2846FFF730
:10401000D9FF002832D12F683E68B8F1000F04D1D3
:1040200039682846FFF74CFF3860EA686968531E14
:10403000072B1DD8DFE803F0040D1C111C1C1C15F8
:104040008B5D237000240020FEF79CFC2046BDE819
:10405000F08131F816302380F4E751F826302360E0
:10406000F0E701EBC601D1E90023C4E90023E9E749
:1040700006FB0211204601F079FEE3E70524E2E7A2
:104080001AE600000D4930B5A1F58C720225914267
:1040900001D800200EE08B1ADB1093FBF5F302EB46
:1040A000C30452F83330834205D802D204F1080227
:1040B000EDE7606830BD2146E9E700BFA4E70000F6
:1040C00008B5FFF7DFFF024B002808BF184608BD00
:1040D00076E60000C0B2002348700B707047000005
:1040E00070B50D46044618B908497120FEF7FEFC6C
:1040F00023681A6812683AB11A681B6851681B680D
:104100002846BDE87040184770BD00BF35EB000081
:10411000F0B5044687B018B92D493720FEF7E6FC04
:104120002368187E1A68C0B207B296684FEAC70CB7
:1041300006EB0C0256F8376051791779927912F034
:10414000010F4FEA510501F0010139D0002937D1A3
:10415000D3F800E09EF80CE00130704530DAD3F877
:1041600000E00CF10800DEF808C084449CF805C0AB
:10417000B5EB5C0F24D11A6891680A1851F800C099
:10418000187E517992F804E09279013011F0010F14
:104190004FEA4212C0B20CBF0321022102F02002FA
:1041A00018768DF8041004F10C0001A98DF8055063
:1041B000CDE9027ECDE9046C01F038FA07B0F0BD1C
:1041C00052014FF0000C02F02002E646E9E700BF82
:1041D00035EB00002DE9F84F0E46044618B9274983
:1041E0008720FEF783FC2568DFF894B04FF00009C4
:1041F0000020FEF7B7FB16B923681B6843B90022FD
:1042000029466068FFF7F0FE88B3C5F800900026E5
:104210000020FEF7B7FB7EB32B681B694BBB2F1D3D
:1042200010223946686901F06FFDA8B104F10C0A4B
:10423000504604F1080801F09DF923465A463946D4
:104240004046FEF703FE18B10C49B420FEF74EFCC1
:10425000504601F045F96F6185F818902046FFF748
:1042600057FF014640B12046FFF73AFFC0E701265D
:10427000CEE72B681F69D3E7BDE8F88F35EB000068
:104280008542000038B50C46054618B91249D220BF
:10429000FEF72CFC23681B681BB90F49D820FEF7DA
:1042A00025FC297871B92268137E10680133007BE0
:1042B000DBB2984207D913762046FFF729FF014663
:1042C00008B938BD03212046FFF70AFF2046012127
:1042D000BDE83840FFF77EBF35EB0000F8B50E466D
:1042E000044620B919494FF48470FEF7FFFB636858
:1042F00023B9164940F20910FEF7F8FB63689B6882
:1043000023B912494FF48570FEF7F0FB26B90F4927
:1043100040F20B10FEF7EAFB23460D4A314604F14A
:104320000800FEF793FD074670B904F10C0001F098
:10433000D7F823681F6096E80F002568043585E8E4
:104340000F0023681A1D5A613846F8BD35EB00008E
:104350008542000037B50546019120B9144940F265
:104360002D10FEF7C3FB019B23B911494FF4977041
:10437000FEF7BCFB019B9B6823B90D4940F22F104F
:10438000FEF7B4FB019B1B7B23B909494FF49870DE
:10439000FEF7ACFB01A96868FFF7B6FD044618B943
:1043A00001462846FFF716FF204603B030BD00BF88
:1043B00035EB00002DE9F04186B0884617461E46D1
:1043C0000C9C054620B9194940F24F10FEF78EFBB0
:1043D00027B916494FF4A870FEF788FB26B9134990
:1043E00040F25110FEF782FB0023ADF800300123AC
:1043F0008DF8003001A90E4B01932846CDF808D066
:1044000003978DF81060CDF81480FFF7A3FF20B15B
:1044100006B0BDE8F08104B1A0479DF80030002B44
:10442000F9D19DF80100C0B2F2E700BF35EB000002
:10443000D540000010B5044618B90749A020FEF782
:1044400055FB064B187920B901221C601A7158716E
:1044500010BD8520FCE700BF97EB0000302900204D
:1044600008B50B4B1B791BB90A49B920FEF73EFB77
:10447000094B1A68D2075FBFE02283F800230122AC
:104480001A604FF080430122C3F8182508BD00BF11
:104490003029002097EB000000E100E007B5154B44
:1044A0001A687AB100221A601B680093009B4FF0D3
:1044B00080430122C3F808230F4B587910B95A7171
:1044C0001B6898470D4B1A6882B100221A601B685E
:1044D0000193019B4FF080430222C3F80823064B4F
:1044E0001B68012003B05DF804EB184703B05DF8CA
:1044F00004FB00BF000100403029002004010040FF
:1045000000F1804000F5C040002382B003600368E2
:104510000193019B02B07047054B4FF0FF32072813
:1045200043F8202084BF1B1883F84820704700BF41
:104530003829002002494FF4F370FEF7D7BA00BFC4
:10454000A6E200001F2838B504460D4601D9FFF742
:10455000F1FFA00000F1A040D0F8003723F4403371
:10456000C0F80037D0F8003743EA0543C0F80037F9
:1045700038BD000010B5164C94F8583033BBFF21FD
:10458000E2180133202B82F83010F9D10021C8B293
:10459000FFF7C2FF01310C29F9D1042200210D4897
:1045A00001F07EFC0C4BE02283F8062340221A60C7
:1045B0004FF4BE70FFF7A4FF084B4FF00042C3F862
:1045C0000423012384F85830002010BD0820FCE7A4
:1045D000382900208C29002000E100E00060004024
:1045E000034B93F85800003018BF0120704700BFFC
:1045F000382900201F2870B504460D4604D94149CA
:104600004FF49870FEF772FA3F4E96F85830012B2F
:1046100004D03C4940F23110FEF768FA25B9394917
:104620004FF49970FEF762FA331993F93020013292
:1046300065D1AA78002A54D0002356F823100131FE
:104640004FEA830248D1311902F1804281F83030BB
:10465000002102F5C04246F82310D2F810052B784D
:10466000697820F498101B04090520F4F85001F42F
:10467000801103F44033C2F810050B432102D2F835
:10468000100501F4F8510B430343C2F810356B7861
:10469000012B4FF0010528D11F2C01D9FFF74AFF4C
:1046A0004FF0A043A540C3F808551F2C01D9FFF7D0
:1046B00041FF04F5E0724FF0A043032143F82210BC
:1046C000E2081249012304F0070403FA04F48B5CA6
:1046D0001C438C54002003E00133082BADD104208F
:1046E00070BDFE2283F83020D1E71F2C01D9FFF7DF
:1046F00021FF4FF0A043A540C3F80C55D5E7082093
:10470000EEE700BFF8EB0000382900208C290020DC
:104710001F2838B5054604D912494FF4BE70FEF77C
:10472000E5F9114C621992F93020013204D10D499A
:1047300040F27D10FEF7DAF9631993F83030072B59
:1047400004D808494FF4BF70FEF7D0F91F2D01D9E6
:10475000FFF7F0FE012303FA05F54FF0A043C3F87D
:10476000085538BDF8EB0000382900201F2838B55F
:10477000054604D912494FF4C370FEF7B7F9114C3E
:10478000621992F93020013204D10D4940F28710AC
:10479000FEF7ACF9631993F83030072B04D80849B9
:1047A0004FF4C470FEF7A2F91F2D01D9FFF7C2FE26
:1047B000012303FA05F54FF0A043C3F80C5538BDAB
:1047C000F8EB0000382900202DE9F04F87B00024D5
:1047D0005B4A5C4E5C4D039401211368A2F5C04016
:1047E000012B80B206D1D6F804330B4202D0FFF77A
:1047F00087FE0C430432AA424FEA4101EDD1534BEC
:104800001B68012B0AD14FF4BE70FFF779FE4FF001
:10481000A04344F00044D3F81035039314F0FF0F85
:104820001AD04B4F00250126344210D0AB0003F1C3
:10483000804303F5C043D3F81005D3F8101557F89B
:104840002530C0F30420C1F3014103B1984701357D
:10485000082D4FEA4606E7D1002C6EDA00224FF011
:10486000FF33CDE904233A4F4FF0000A56464FF08C
:10487000A04907EB0A0393F95040631C46D0E4B209
:10488000012224F0C00504F0070B02FA0BFBEB0831
:1048900006AAD11811F8042C12EA0B0F36D07A1997
:1048A000A40992F9302057F82280B8F1000F0AD1FC
:1048B000032C2BD10DF1100C1CF8030040EA0B0067
:1048C0000CF8030001E0032CF4D01F2D03D9019153
:1048D000FFF730FE019911F80C1C05F5E07311EAA1
:1048E0000B0F59F82330C3F3014320D0022B0DD115
:1048F000032C05D121462846FFF724FE0136F6B2E7
:10490000B8F1000F02D021462846C0470AF1010A3B
:10491000BAF1040FADD186B14FF0A043039AD3F89A
:1049200010359A4209D00393049B05939CE7032B0F
:10493000ECD1032CE4D10221DDE707B0BDE8F08F14
:104940000061004000600040206100407C61004048
:104950003829002010B5054C22681AB904495120A5
:10496000FEF7C4F82368BDE81040184794290020DA
:104970005FEC000038B50D4628B90C497720FEF7EA
:10498000B5F8002038BD0A4B9842FAD10020FDF757
:10499000E9FF084B1C7914B901221D601A7100202F
:1049A000FDF7F0FF002CECD01120EBE75FEC0000EE
:1049B000002000409429002018B906499B20FEF7EA
:1049C00095B8054B984201BF044B00221A601A713A
:1049D000704700BF5FEC00000020004094290020D9
:1049E0000023435082B043580193019B02B07047AB
:1049F00070B5D0F8103105460C4653B14FF48871AC
:104A0000FFF7EEFF63795A0703D523680BB1012046
:104A10009847D5F814315BB14FF48A712846FFF7F7
:104A2000DFFF63791B0703D523680BB1022098478A
:104A3000D5F81C315BB128464FF48E71FFF7D0FFDB
:104A4000607910F0100002D1236803B19847D5F8BF
:104A5000043163B14FF482712846FFF7C1FF01238F
:104A6000237123681BB10320BDE87040184770BD57
:104A700001490248FFF7BCBF9C29002000C001404B
:104A800001490248FFF7B4BFA429002000100240EA
:104A900001490248FFF7ACBFAC29002000200240CA
:104AA00000F1804000F5E040002382B0036003681D
:104AB0000193019B02B07047F0B5514B514C1B68FC
:104AC00085B0DBB14FF4827094F82E20FFF7E8FF39
:104AD00012B194F82F30A3B1636802932389ADF823
:104AE0000C30E36800218DF80410002B44D12374AE
:104AF000236801A89847002384F82F3094F82E30BB
:104B000003B3414B1B68EBB14FF48070FFF7C8FF54
:104B100094F82D20638B91B28B4238D95B1A21898E
:104B20009BB26383CB1A616801EB4301374BC3F837
:104B30002C16C3F830264FF48270FFF7B1FF344BC8
:104B400001221A60334B1B685BB14FF48870FFF78A
:104B5000A7FF002304A82374022300F80C3D236858
:104B600098472D4B1B6813B34FF48A70FFF798FFDB
:104B70000023237405B0F0BD208B60836360208127
:104B8000E160002AB4D1214B01221A60B0E7D2D1F2
:104B9000E368012184F82F103BB1002161831B4998
:104BA000C1F82C36C1F83026C5E76383C3E76669D0
:104BB0004FF000470125002EDCD0B6FA86F227FA26
:104BC00002F34632920026EA030602F1804303F51F
:104BD000E0431B68002BEED01046FFF761FFA2F503
:104BE0008C72D30882F00402C2F380028DF8083080
:104BF0008DF804508DF80920236801A89847DAE75A
:104C000004710040B4290020007100400070004091
:104C100004700040107100401471004002494FF4CC
:104C2000F370FDF763BF00BFA6E200001F2810B5B8
:104C3000044601D9FFF7F2FF012303FA04F44FF011
:104C4000A043C3F80C4510BD1F2810B5044601D978
:104C5000FFF7E4FF012303FA04F44FF0A043C3F885
:104C6000084510BD13B54FF04023D3F818310BB3EE
:104C7000114B124C00221A601B680193019B2368A0
:104C800023B90F494FF42770FDF730FFE07FFF286D
:104C900003D0A37F5BB1FFF7C9FF002363772372C3
:104CA000D4E90031074802B0BDE810401847FFF7CB
:104CB000CBFFF2E702B010BD18410040E42900200C
:104CC000CAEC0000EC2900202DE9F74F8146CDE920
:104CD00000230C4619B97B49AD20FDF707FF99F871
:104CE0000460794F242303FB06FB07EB0B0A9AF8B9
:104CF0001C10002940F0E080D9F800507349284684
:104D0000FFF738FE8046002840F0D980009B47F826
:104D10000B30019BCAF80430237B2078012B00F272
:104D2000B980FFF783FF94F800A0BAF11F0F01D9F3
:104D3000FFF774FF0AF5E07A4FF0A043012243F831
:104D40002A2094F801A0BAF1FF0F00F0A680504687
:104D5000FFF76CFFBAF11F0FD34601D9FFF75EFFD3
:104D60000AF5E07A4FF0A043032243F82A20A37803
:104D7000FF2B00F095801F2B9A4603D90093FFF775
:104D80004DFF009B03F5E0734FF0A042042142F871
:104D90002310242303FB0673A27883F82020E278F3
:104DA000DA77E078FF2817D02379002B7BD0FFF744
:104DB0003DFFE3781F2B03D90093FFF72FFF009BE4
:104DC00003F5E0734FF0A042032142F8231024239F
:104DD00003FB067322799A772378C5F80835C5F85E
:104DE0000CB5C5F810A5A368C5F82435637B227BF4
:104DF000003318BF0123022A58D0032A59D0012AB0
:104E000001D143F00203C5F85435A379C5F8C03584
:104E100024237343FB5813B14022C5F8042307220F
:104E2000C5F800255BB3D9F8003064794FEA133A2E
:104E300094424FFA8AF503D925496B20FDF756FEB7
:104E4000002DACBF05F16043224B4FEA4414B8BFBC
:104E50000AF00F0AE4B2AABF03F5614303F80A405F
:104E600083F80043D9F800301B0B5AB2012103F03C
:104E70001F0301FA03F35209174941F82230242392
:104E800003FB06760023737701233377404603B094
:104E9000BDE8F08FFFF7D8FE45E74FF0FF3B66E730
:104EA0004FF0FF3A75E7FFF7CFFE82E743F00403C8
:104EB000A9E743F00603A6E74FF00808E6E74FF03E
:104EC0001108E3E7CAEC0000E4290020654C00006B
:104ED00024ED000014ED00E000E100E02DE9F341D5
:104EE000584F0679242303FB067380461B7F0D462B
:104EF000144623B9544940F23220FDF7F7FD2B68E0
:104F000033B96B6823B1504940F23320FDF7EEFD11
:104F1000AB6833B9EB6823B14B494FF40D70FDF723
:104F2000E5FD98F804302BB9EB68FF2B02D86B68CD
:104F3000FF2B04D9444940F23720FDF7D7FD242345
:104F40007343FA18517F002979D1FB5823B114F02B
:104F5000140F04BF0123537795E80F004FF0240C82
:104F60000CFB067C0CF10C0E8EE80F009CF81F0069
:104F7000FF2804D09CF81E30C3B1FFF765FE2A68F5
:104F800022B102F06043B3F1005F06D1AB6883B198
:104F900003F06043B3F1005F0BD0242303FB0676DC
:104FA00000237377102002B0BDE8F081FFF73EFECA
:104FB000E5E7D8F800306968C3F84425C3F8481518
:104FC000D5E90212C3F83415C3F838250022C3F816
:104FD0001821D3F818210192019A14F0010218BF88
:104FE0000122C3F8502514F0020218BF0122C3F8B1
:104FF000402522075CBF01221A6124227243BA585D
:1050000092B9D3F81821002AFBD0242303FB06769B
:10501000F07FFF2803D0B47F1CB1FFF707FE00200C
:10502000C1E7FFF711FEFAE714F004004FF0400269
:1050300002D0C3F80823F2E7C3F80423B3E7112032
:10504000B1E700BFE4290020CAEC00002DE9F743D6
:10505000002406460F4600F5A0754FF48038A1469F
:1050600004F150002B68800080B26BB1D6F8043395
:1050700008FA04F21A4207D0C5F800902B68019391
:10508000019BD7E9003198470134042C05F1040550
:10509000E6D103B0BDE8F0832DE9F3470446154699
:1050A00006790F4619B94E494A20FDF71FFD1DB973
:1050B0004B494B20FDF71AFD4A4A0C2303FB0623FC
:1050C00090461B7A002B40F088802368464A934222
:1050D0000FD002F5805293420BD002F580529342DA
:1050E00007D002F58032934203D002F580529342FA
:1050F00002D1BB78032B03D939495F20FDF7F6FCB9
:105100000C23734308EB030248F803507B68536099
:1051100000210D4660792368CAB2904201F1010175
:1051200053D897F803901D0BB9F1070F4FFA85FA82
:1051300003D92E496B20FDF7D9FCBAF1000FAEBFA1
:105140000AF1604305F00F03294A2A484FEA49193A
:105150005FFA89F9AABF03F5614302F8039083F867
:10516000009323681B0B59B24909012203F01F0366
:1051700002FA03F340F8213020687B78D0F8041558
:1051800003F0030321F003010B43C0F8043520684A
:10519000BB78D0F8081503F0030321F003010B439B
:1051A000C0F8083520683B78D0F8101503F00F03DD
:1051B00021F00F010B43C0F810350C2303FB0686CA
:1051C0000020327202B0BDE8F087920002F5A072B2
:1051D0009D509B580193019B9CE70820F2E700BF7C
:1051E0007BED0000082A00200080004024ED000034
:1051F00014ED00E000E100E001490248FFF726BF9E
:10520000082A00200080004001490248FFF71EBF25
:10521000142A0020009000400023435082B04358DD
:105220000193019B02B07047F0B5504C236887B0E2
:1052300023B94F4940F24520FDF758FC4D4AD2F8BA
:1052400024311546A3B14FF492711046FFF7E4FFE5
:10525000D2F8043163B9A368C2F808330223A3600B
:10526000A368C2F8043301231362536107B0F0BD91
:10527000D5F80431002B49D03F4F3E484FF482719E
:10528000FFF7CAFF0FCF01AE0FC63B68336094F83B
:105290002E307BB1237B012B0CBFD5F83C25D5F8F4
:1052A0004C250292022B334B0CBFD3F83C35D3F87C
:1052B0004C3503934FF4B0712E48FFF7ADFF4FF418
:1052C000AE712C48FFF7A8FF94F8303013B194F872
:1052D0002E303BB1274B0022C3F80022A260274AA0
:1052E000C3F80823234AD2F8C434C2F8C4349A0756
:1052F00036D501238DF8003094F830300BB984F89E
:105300002F30D4E9003168469847AFE74FF4A471D5
:105310001848FFF781FF237B83B9174F0FCF01AEEA
:105320000FC63B68336094F83030002BDAD1C5F8F3
:105330000032A360114BC5F80833D3E74FF4007374
:10534000C5F8003240F20223A36003F1CE73C5F822
:105350000833A368C5F804330123AB602B6285E7EB
:1053600013F0040318BF0223C4E700BF202A002063
:10537000DCED0000003000402C2A002002029C01DD
:105380002DE9F74F8046934601930C4619B94D49D4
:10539000A920FDF7ABFBD4E900239A4203D1494988
:1053A000AA20FDF7A3FB98F80470474E342303FBB3
:1053B00007FA06EB0A0999F82D20002A7ED1434905
:1053C000D8F80000FFF7D6FA0546002878D146F84D
:1053D0000AB0019BC9F80800C9F8043089F8300008
:1053E00089F82F00637B89F83230D4F80090B9F146
:1053F0001F0F04D936494FF4F370FDF777FB4FF0D8
:10540000A04309F5E07940F20C6243F82920D4F872
:1054100004A0BAF11F0F994604D92D494FF4F37037
:10542000FDF764FB0AF5E07A40F20C6349F82A3094
:10543000D4E90012D8F80030C3F80815C3F80C25D9
:10544000A268C3F8242534237B43F35863B3D8F808
:105450000030247B4FEA133A072C4FFA8AF903D91C
:105460001C496B20FDF742FBB9F1000FACBF09F1FD
:105470006043194B4FEA4414B8BF0AF00F0AE4B274
:10548000AABF03F5614303F80A4083F80043D8F844
:1054900000301B0B5AB2012103F01F0301FA03F382
:1054A00052090E4941F82230342303FB07660123D9
:1054B00086F82D30284603B0BDE8F08F0825F9E7BF
:1054C0001125F7E7DCED0000202A0020295200001A
:1054D000A6E2000024ED000014ED00E000E100E091
:1054E00070B50D4D0479342202FB0452064692F841
:1054F0002D20012A04D0094940F21110FDF7F6FAD7
:1055000033680622C3F80025342303FB0454022326
:1055100084F82D3070BD00BF202A0020DCED000093
:1055200070B5114D0479342202FB0452064692F8FC
:105530002D2022B90D494FF48E70FDF7D7FA342291
:10554000336802FB04540021094AA160C3F8082310
:10555000D3F8002222F4BC52C3F80022C3F800158D
:10556000012384F82D3070BD202A0020DCED0000DE
:1055700002029C01F8B5294D0479342303FB04533E
:10558000064693F82D301BB92549F820FDF7AEFAF1
:1055900034236343EB5863B133681B0B5AB20121C8
:1055A000520903F01F0301FA03F320321D4941F8A9
:1055B00022303046FFF7B4FF3068FFF7FDF934239F
:1055C00003FB045393F8323003BB3368D3F80875F8
:1055D0001F2F04D914494FF4F370FDF787FA4FF0E9
:1055E000A04307F5E077022243F827203268D2F87B
:1055F0000C751F2F1E4604D90B494FF4F370FDF7AD
:1056000075FA07F5E077022346F82730342303FBC9
:105610000454002384F82D30F8BD00BF202A002058
:10562000DCED000000E100E0A6E200002DE9F84317
:10563000037904460D4690462BB94B68FF2B02D8E0
:105640008B68FF2B04D9B6494FF4F870FDF74EFA7A
:105650002779B44E34237B43F3583BB92B78022B84
:1056600004D1AF494FF4FB70FDF740FA34237B437C
:10567000F3583BB92B78032B04D1A94940F2F7101A
:10568000FDF734FAEB6803F06043B3F1005F03D039
:1056900010221046BDE8F8832468A34BC4F80833F1
:1056A0004FF0340C0CFB076C9CF82F302BB1DCF85E
:1056B0000830C4F804331122EBE718F0140F0CBFC4
:1056C000012300238CF82F30A946B9E80F000CF114
:1056D0000C0EAEE80F00D9F80030CEF80030C8F359
:1056E00000138CF830306B78C4F888354FF4827131
:1056F0002046FFF791FD4FF49271FFF78DFD18F0F2
:10570000010318BF0123C4F8503518F0020318BF75
:105710000123C4F840352B78032B00F2E080DFE84A
:1057200003F0A0C8810218F0100F04D07C4940F2A9
:105730007110FDF7DBF918F0080F04D078494FF429
:10574000B970FDF7D3F918F0040F04D0744940F292
:105750007310FDF7CBF92B6903F06043B3F1005FE1
:1057600096D14FF48073C4F800326B68EA68C4F8CD
:1057700044252046C4F848354FF4A871FFF74CFD86
:105780004FF4B071FFF748FD4FF4A471FFF744FDEB
:1057900001232362A360D4F85031002BFBD04FF4D7
:1057A000A8712046FFF738FDAB682A69C4F8442584
:1057B000C4F84835342303FB07635C4A9A604FF40E
:1057C00082730821002218F0080F04D128780328DA
:1057D0001CBF012060503421794370187158002992
:1057E00040F08280012523441968002900F0898057
:1057F0003421D4F8C434C4F8C43401FB0766002152
:1058000086F82F10002B3FF444AF13F0020F48F23C
:10581000012208BF032213F0040F48F2022318BF2D
:105820001A4636E76B68EA68C4F84425C4F8483578
:105830002B6903F06042B2F1005F7FF429AFAA68E0
:10584000C4F834354FF48453C4F83825C4F8003212
:10585000342303FB076340F202229A600123236290
:10586000ADE76B68EA68C4F8442518F0200FC4F867
:1058700048354FF0340310D003FB07634FF48072B8
:10588000C4F80022294A9A604FF4A471FFF7C4FCBF
:105890004FF4A4730122226293E74FF4007203FBDA
:1058A0000763C4F8002240F202229A604FF4827328
:1058B000F0E76B68EA68C4F83425C4F838354FF46B
:1058C0008053C4F80032342303FB076340F2022202
:1058D0009A600123236200214FF4827372E74FF430
:1058E0008273082107226EE718F0040F1CBF4FF4E3
:1058F00000738360342303FB0766B368C4F8043382
:10590000C7E6D4F8241100293FF46EAF4FF492712A
:105910002046FFF781FC25624FF48273656162E7E0
:10592000DCED0000202A002002029C01000204009D
:105930000C4B1B78062B10D10B4B1B681A070CD194
:105940000A4B186800F0F003302B08D000F0E0009C
:10595000A0F1400358425841704700207047012091
:10596000704700BFE00F00F0E40F00F0E80F00F018
:10597000094B1B78062B0CD1084B1B681A0708D162
:10598000074B186800F0F000A0F13003584258416E
:1059900070470020704700BFE00F00F0E40F00F0F8
:1059A000E80F00F008B5FFF7C3FF28B17D4B7E4A32
:1059B0001B68C3F304231360FFF7DAFF10B17B4BBE
:1059C0007B4A1A60FFF7B4FF28B17A4B7A4A1B680A
:1059D000C3F342331360FFF7CBFF20B1774AD3689C
:1059E00023F08073D360FFF7A3FF40B14FF08043F3
:1059F0000022C3F80C21C3F81021C3F83825FFF7A3
:105A0000B7FF10B16E4B03221A60FFF7B1FF40B130
:105A10006C4B05221A6001229A6700229A603F228D
:105A20005A60694B1B78062B50D1684B1B681907CD
:105A30004CD1674B1B6803F0F003502B46D14FF05D
:105A40008052644BD2F80414C3F82015D2F808141D
:105A5000C3F82415D2F80C14C3F82815D2F8101482
:105A6000C3F82C15D2F81414C3F83015D2F8181452
:105A7000C3F83415D2F81C14C3F84015D2F820141A
:105A8000C3F84415D2F82414C3F84815D2F82814E2
:105A9000C3F84C15D2F82C14C3F85015D2F83014B2
:105AA000C3F85415D2F83414C3F86015D2F838147A
:105AB000C3F86415D2F83C14C3F86815D2F8401442
:105AC000C3F86C15D2F84424C3F87025FFF730FFF3
:105AD00028B1414B414A1B6803F04F031360FFF7A5
