:10000000000001205135000079350000E51E000098
:100010007D3500007F3500008135000000000000C4
:10002000000000000000000000000000150A0000B1
:100030008535000000000000350A0000251700008B
:10004000ED2800008B350000A52D000029310000AF
:10005000493000008B350000192C00009D2E000057
:10006000F9300000093100008B3500008B350000AD
:100070008B3500008B3500008B3500008B35000080
:100080008B350000151B00008B3500008B35000000
:10009000B11B00008B3500008B3500008B35000054
:1000A0008B3500008B3500008B3500008B35000050
:1000B000552E00008B3500000000000000000000FD
:1000C0008B350000652E0000752E00008B3500007A
:1000D0008B3500008B3500008B35000000000000E0
:1000E0000000000000000000000000000000000010
:1000F0000000000000000000000000000000000000
:1001000000000000000000000000000000000000EF
:1001100000000000000000000000000000000000DF
:1001200000000000000000000000000000000000CF
:1001300000000000000000000000000000000000BF
:1001400000000000000000000000000000000000AF
:10015000000000000000000000000000000000009F
:10016000000000000000000000000000000000008F
:10017000000000000000000000000000000000007F
:10018000000000000000000000000000000000006F
:10019000000000000000000000000000000000005F
:1001A000000000000000000000000000000000004F
:1001B000000000000000000000000000000000003F
:1001C000000000000000000000000000000000002F
:1001D000000000000000000000000000000000001F
:1001E000000000000000000000000000000000000F
:1001F00000000000000000000000000000000000FF
:1002000010B5054C237833B9044B13B10448AFF350
:1002100000800123237010BDC809002000000000E9
:100220003CA8000008B5034B1BB103490348AFF3DA
:10023000008008BD00000000CC0900203CA80000A0
:10024000154B002B08BF134B9D46A3F5803A0021A8
:100250008B460F461348144A121A03F089FA0F4BC3
:10026000002B00D098470E4B002B00D09847002061
:10027000002104000D000D48002802D00C4805F0B4
:10028000E1FA03F093F92000290000F0DDF803F013
:100290007DF900BF00000800000001200000000000
:1002A00000000000C8090020B429002045580000C3
:1002B000156A0000F8B5044600F03EFF2A480168C0
:1002C00071B92A4B2A4A23F00703C2E90031294AAF
:1002D00040F6F875C2E90015C3E900250123036063
:1002E000002C3ED004F00703C3F11003DA43A2420E
:1002F00037D31C44002C34DD1F490868A0428C46CB
:100300002FD31B4A13685D68A54201D21D681DBB2F
:10031000184DAB4225D01E68156816605E68361B06
:10032000102E05F108050AD91A1956605C60576845
:100330000F4C26687168B94211D3166022605A6862
:10034000801A42F000425A600022CCF800001A6085
:1003500000F0C4FF2846F8BD1A462B46D3E73446C2
:10036000E7E70025F4E700BFEC190020EB090020C7
:10037000F0190020E41900200000002010B5044608
:10038000A0B350F8043C002B04DB19494FF48B70E8
:1003900001F044FE54F8083C23B1154940F217100F
:1003A00001F03CFE54F8043C002B1FDA54F8082CF2
:1003B000E2B923F0004344F8043C00F0BDFE54F8D9
:1003C000042C0C4B1968486890420DD3224642F821
:1003D000081D1A60084A54F8043C11680B44136065
:1003E000BDE8104000F07ABF0B46EBE710BD00BF40
:1003F00014950000F01900200000002038B5054DCC
:10040000054C2946204603F0FDF94FF4967001F0A3
:100410001BF8F6E793950000A795000038B5054D49
:10042000054C2946204603F0EDF94FF4967001F093
:100430000BF8F6E7AC950000A7950000014803F023
:10044000E1B900BF7795000013B501F0A1FE18B126
:10045000114A3B2101F049FB104803F0D3F9022473
:10046000FFF7ECFF0E4B01934FF4827200230D490E
:1004700000940D4800F034FD0C4B0D490D48CDE9BA
:1004800000434FF48272002300F02AFD0A4803F073
:10049000B9F900F017FEFEE71D9500002495000055
:1004A0000029002049950000FD030000FC280020E1
:1004B000509500001D0400005795000008B5064B3C
:1004C0001B68013303D005499E2001F0A7FD40239E
:1004D00083F31188FEE700BF241A0020C0950000B6
:1004E0004FF0807340E90213054B40F80C3C6FF06D
:1004F000020340F8202C40F8243C4438704700BFE9
:10050000BD04000013B5294B1A68294B9A4203D049
:100510002849B02001F082FD274B1A78D2B201920F
:10052000FF221A701B78254ADBB28DF803309DF844
:10053000033003F002031370214B07221A600021DD
:100540009DF80300000602F1FF3425D401B11A60C2
:100550001A68164C02F007021A60019B164ADBB2B9
:100560001370E02384F8223001F0F0F8154B0022DC
:100570001A60D4F88830144A43F47003C4F8883001
:10058000536843F040435360236943F010032361F1
:1005900000F032FAFFF792FF9DF803205200D2B22A
:1005A0008DF8032001212246CAE700BF00ED00E0DC
:1005B00041C20F41C095000000E400E01C1A002079
:1005C000201A0020241A002030EF00E0402383F39B
:1005D0001188084A13680133012B136009D1064BB7
:1005E0005B68C3F3080323B1044940F2111001F022
:1005F00015BD7047241A002000ED00E0C0950000F2
:1006000010B5074C236823B906494FF48C7001F0EC
:1006100005FD2368013B23600BB983F3118810BDEE
:10062000241A0020C095000010B50446FFF7CEFF45
:10063000A46BFFF7E5FFB4FA84F0400910BD034650
:1006400010B41A6C084662B1D9689C681144A14282
:10065000D96024BF1968D960D9685DF8044B02F0ED
:10066000EDBF5DF8044B704770B50446FFF7AEFF71
:1006700094F8455004F124066DB2002D14DCFF23DC
:1006800084F84530FFF7BCFFFFF7A0FF94F8445013
:1006900004F110066DB2002D12DCFF2384F8443003
:1006A000BDE87040FFF7ACBF636A002BE7D030466F
:1006B00000F06EFF08B101F01FF8013D6DB2DCE7FC
:1006C0002369002BE9D0304600F062FF08B101F049
:1006D00013F8013D6DB2DEE7F8B50D460446A0B94A
:1006E00022494FF4957001F099FC40F25F101F49C8
:1006F00001F094FC002037E004F1100000F043F911
:1007000004F1240000F03FF92BE0C66B002EECD082
:10071000236CA6FB0367002FE7D1FFF757FFD4E94F
:100720000F312268A7634B43D0185B1A1344E36070
:10073000FF2384F84430A060626084F84530002DC7
:10074000DAD123696BB104F1100000F021FF40B150
:10075000074B4FF080525A6040BFBFF34F8FBFF33B
:100760006F8FFFF74DFF0120F8BD00BFCD95000052
:1007700000ED00E070B50D460646C8B1A1FB0023B0
:10078000B3B9484310F1490F12D84830FFF792FD32
:10079000044638B145B92060C4E90F6501212046FF
:1007A000FFF79AFF204670BD00F148030360F3E7AE
:1007B000034940F2112001F031FC0024F2E700BFB0
:1007C000CD9500002DE9F04385B00F460192044617
:1007D00020B944494FF4B36001F020FC37B9236CD1
:1007E00023B1404940F29C5001F018FC00F08AFF10
:1007F00030B9019B23B13B4940F2A15001F00EFCFE
:100800000026DFF8E490B046FFF7E0FEA56BDDB10F
:1008100039462046013DFFF712FFA56323696BB1FE
:1008200004F1100000F0B4FE40B12F4B4FF08052A5
:100830005A6040BFBFF34F8FBFF36F8FFFF7E0FEEB
:10084000012005B0BDE8F083019D1DB9FFF7D8FE7A
:100850000020F6E716B902A800F00CFFFFF7D0FE63
:1008600000F06AFCFFF7B2FE94F84430FF2B08BF9B
:1008700084F8448094F84530FF2B08BF84F8458005
:10088000FFF7BEFE01A902A800F000FFF8B920465C
:10089000FFF7CAFEA8B1019904F1240000F032FE6E
:1008A0002046FFF7E1FE00F019FD40B94FF08053FC
:1008B000C9F8043040BFBFF34F8FBFF36F8F0126DD
:1008C000A2E72046FFF7D0FE00F008FDF7E720463C
:1008D000FFF7CAFE00F002FD2046FFF7A5FE002844
:1008E000EDD0B5E7CD95000000ED00E038B50D4640
:1008F000044620B9104940F6E61001F08FFBBDB167
:100900000E4A53689C4211460DD01368D068002BE4
:100910000CBF1346002384420BD03BB993683BB90C
:1009200002F1080302E0002301EBC303C3E9005412
:1009300038BD0123F8E700BFCD9500000429002051
:1009400070B504460D461646FFF740FE94F8443055
:10095000FF2B04BF002384F8443094F84530FF2B6C
:1009600004BF002384F84530FFF74AFEA36B2BB980
:100970003246294604F1240000F0DEFD2046BDE8A1
:100980007040FFF771BE00F108034FF0FF32436083
:10099000C0E9022303610023036070470023036161
:1009A00070470A68531C30B50AD103695A684A6017
:1009B00091608B605960086103680133036030BD4A
:1009C00000F108035C6825689542EFD82346F9E7F3
:1009D000D0E9012103699160D0E9011251605A68A0
:1009E000824204BF82685A60002202611A68013A9A
:1009F0001A601868704700000548006880F308888E
:100A000062B661B6BFF34F8FBFF36F8F00DF00BFD9
:100A100000000000064B19680868B0E8F04F80F34A
:100A20000988BFF36F8F4FF0000080F31188704783
:100A3000641A0020EFF30980BFF36F8F144B1A681C
:100A40001EF0100F08BF20ED108A20E9F04F106053
:100A50004DF8043D4FF0400080F31188BFF34F8FF5
:100A6000BFF36F8F00F016FD4FF0000080F3118888
:100A700008BC19680868B0E8F04F1EF0100F08BFF6
:100A8000B0EC108A80F30988BFF36F8F704700BF06
:100A9000641A0020F8B50F4CFFF798FD2568ADB932
:100AA0000D4F0E4E3846FFF76EFF3046FFF76BFFD7
:100AB0000B4B1F600B4B2A46102120201E60FFF7B6
:100AC00059FE206010B10849FFF710FFBDE8F8405B
:100AD000FFF796BD5C1A0020301A0020441A00204F
:100AE000281A00202C1A0020D5950000914208B544
:100AF000416000610AD8D21A83699A420DD2084B2C
:100B0000011D1868FFF74DFF002008BD9A4201D271
:100B1000994202D2011D034BF3E70120F5E700BF24
:100B20002C1A0020281A002070B504460D461646DF
:100B3000A1692B46324629442046FFF7D7FF00B96A
:100B400070BDA36920461D44236A9847F0E7000062
:100B500070B50E4B1B68DB68DC680546201D0E4631
:100B6000FFF736FF94F824305A0709D53246294654
:100B70002046FFF7D9FF236A2046BDE8704018479A
:100B800023F0010384F82430F5E700BF281A002081
:100B900010B5084C23681A6822B9074A1168136017
:100BA000216010BDDB684FF0FF311868FFF7D0FF00
:100BB000F0E700BF281A00202C1A00202DE9FF477B
:100BC000624DDFF898812E46D8F80020136833B3C1
:100BD000D368D3F80090002400F0AEFA00F0B4FA25
:100BE0002B685B4F984282461CD328601CB3594B3C
:100BF0001B681A68B2FA82F25209A9EB0A01386836
:100C0000FFF79EFE00F06AFB90B9534B4FF0805205
:100C10005A6040BFBFF34F8FBFF36F8F08E00124CE
:100C20009946D9E7FFF7B4FFC5F800A000F056FBDE
:100C3000DFF82CA126E0814506D800F04FFB514695
:100C40004846FFF785FFF3E72246D6E794F82430BD
:100C5000A16943F0010384F82430019B4A461944FA
:100C60002046FFF743FF68B194F82430590743D575
:100C7000A36901994A4619442046FFF755FF236AA4
:100C800020469847002269463868FFF79BFD0028F8
:100C90009AD0009B002B03DADDE90201019B984703
:100CA000009B002BEEDB029C636913B1201DFFF754
:100CB0008FFE00F049FA33689842814601D2FFF76F
:100CC00067FF009BC6F80090013B082BDAD801A211
:100CD00052F823F04D0C00004D0C0000030D0000F5
:100CE000110D00003D0D00004D0C00004D0C0000EA
:100CF000030D0000110D000023F0010384F82430DF
:100D0000BDE794F8243023F0010384F82430B9E7D8
:100D100094F8243043F0010384F82430019BA3614C
:100D200023B951464FF45D7001F078F9A1694B4643
:100D30004A4649442046FFF7D9FEA3E794F82430F9
:100D40009A07E0D42046FFF719FB9BE7581A0020CA
:100D50005C1A00202C1A002000ED00E0281A002068
:100D6000DA95000007B5FFF795FE0C4B1B6843B9F9
:100D700040F219100A4901F051F9002003B05DF862
:100D800004FB084B019302230093502200230649E1
:100D9000064800F0A5F80028EAD0EFE75C1A00202A
:100DA000DA950000601A0020E3950000BD0B0000FA
:100DB000F8B5214B214E1C680546306804300F46BB
:100DC000FFF706FE334640B931681D4EC96A3268E6
:100DD0000120884022EA000232606A1C14D19FB1CF
:100DE000184A18685168816018688C68C46018686F
:100DF0008C680430606018681B68043088605A6131
:100E0000136801331360F8BD1A686419546007D37E
:100E10000D4A10681968BDE8F8400431FFF7C1BDFC
:100E20000A4A106819680431FFF7BBFD084B1A68BD
:100E3000A24288BF1C60E6E7381B0020641A00202D
:100E4000BC1A0020101B00206C1A0020681A002019
:100E5000EC1A0020064A13681968064B19B94FF0BE
:100E6000FF321A6070471268D2681268F9E700BF53
:100E7000681A0020EC1A002080B5144C144F154E4F
:100E800023686BB9144B1B68012BF8D9134B4FF037
:100E900080525A6040BFBFF34F8FBFF36F8FEEE7B2
:100EA000FFF794FBFB68DD68281DFFF791FD3368B1
:100EB000013B33602368013B2360FFF7A1FB286BF4
:100EC000FFF75CFA2846FFF759FAD9E7B01A002075
:100ED000241B0020AC1A0020701A002000ED00E056
:100EE0002DE9F84F9600814630460F469A46DDE9D7
:100EF0000A58FFF7DFF98346002800F0A380482056
:100F0000FFF7D8F90446002800F099804822002114
:100F100002F02EFC3246C4F830B0A521584602F04B
:100F200027FC236B043E1E4426F00706002F40F0EA
:100F30008C80022D05D9524940F2963001F06EF8AE
:100F40000225271DE562A5633846FFF727FDC5F199
:100F5000030504F11800FFF721FD2461A561646217
:100F6000524649463046FFF7BBFA2060B8F1000F01
:100F700001D0C8F80040FFF729FB424B424E1A68E7
:100F8000DFF8388101321A603268002A6DD134608E
:100F90001B68012B1FD13D48DFF824913C4DFFF722
:100FA000F2FC3C48FFF7EFFC3B48FFF7ECFC4846FF
:100FB000FFF7E9FC2846FFF7E6FC3848FFF7E3FCBB
:100FC0003748FFF7E0FC3748FFF7DDFC364BC3F846
:100FD0000090364B1D60364AE16A13680133136096
:100FE000344A0125106805FA01F303431360274AC8
:100FF000142303FB01214868A0608168E1608168D7
:101000004F608760E16A4B43D1186161D158294430
:10101000D150FFF7F5FAD8F800306BB13368DA6ACF
:10102000E36A9A4208D2244B4FF080525A6040BF84
:10103000BFF34F8FBFF36F8F2846BDE8F88F584638
:10104000FFF79CF94FF0FF35F6E77B1E04F1340201
:10105000033713F8011F02F8011B197809B19F42E9
:10106000F7D1002384F8373063E7D8F80030002B3D
:10107000B1D13368E26ADB6A9A4228BF3460AAE7DA
:10108000EB950000AC1A0020641A0020701A0020B2
:10109000D41A0020841A0020981A0020F81A002080
:1010A000241B0020101B0020681A00206C1A00204E
:1010B000B81A0020BC1A002000ED00E00C1B002034
:1010C000C01A002013B5144B01930024009423464A
:1010D0003C2212491248FFF703FF012814D1FFF701
:1010E00041FE012810D1402383F311880D4B4FF0AE
:1010F000FF321A600C4B18600C4B1C60FFF702FAB1
:101100000B4B1B6802B010BD0130F9D1094940F604
:10111000170000F083FFF3E7E81A0020F3950000C2
:10112000790E0000EC1A00200C1B0020381B002058
:1011300004000020EB950000024A1368013313609D
:10114000704700BFB41A0020014B1868704700BFF9
:10115000381B00202DE9F74F544B1B68002B40F043
:101160009E80534B1C6801341C609CB9514D2B6808
:101170001B6823B1504940F6EB2000F04FFF4F4B66
:101180002A68196829601A604D4A13680133136090
:10119000FFF760FE4B4901910B689C424FF0000045
:1011A00007D2494B1B68002B18BF012003B0BDE8D4
:1011B000F08F404EDFF820C1444D07464FF0010A42
:1011C0004FF0140833681B6823B9019A4FF0FF33BE
:1011D0001360E6E73368DB68DB685A68944202D242
:1011E000019B1A60DDE7D3E90221D3F814909160E6
:1011F000D3E902125160D9F8042003F1040E7245BC
:1012000004BFDA68C9F804205F61D9F80020013A08
:10121000C9F80020D3F82890B9F1000F14D0D3E911
:1012200007219160D3E907125160D9F8042003F136
:10123000180B5A4504BF1A6AC9F804209F62D9F8EE
:101240000020013AC9F80020DA6ADCF800B00AFA96
:1012500002F908FB025249EA0B0952689A60916848
:10126000D9609168CCF80090C1F804E0C2F808E0B9
:10127000DA6A08FB02F205EB020EC3F814E055F837
:1012800002E00EF1010E45F802E0114AD2F800E04A
:10129000DA6ADEF82C309A4288BF012092E70D4AC4
:1012A000136801331360002080E700BFB41A0020E8
:1012B000381B0020681A0020EB9500006C1A0020F3
:1012C000F01A0020EC1A00203C1B0020701A0020AD
:1012D000641A0020F41A0020BC1A00202DE9F84FEF
:1012E0004F4C236823B94F4940F68A0000F096FE20
:1012F000FFF76CF92368013B236023682BB10024BE
:10130000FFF77EF92046BDE8F88F474A1268002AA9
:10131000F5D04648464C4749DFF828C198469E46D6
:101320000125142659E0C368DB68D3E90727D3F801
:1013300028909760D3E907725760D9F8042003F129
:10134000180A524504BF1A6AC9F80420C3F8288055
:10135000D9F80020013AC9F80020D3E90227D3F8D0
:1013600014909760D3E902725760D9F8042003F112
:10137000040A524504BFDA68C9F80420C3F814E02F
:10138000D9F80020013AC9F80020DA6AD4F800B090
:1013900005FA02F906FB021249EA0B095268C4F881
:1013A00000909A609768DF609768C7F804A0C2F859
:1013B00008A0DA6A724301EB0209C3F8149051F8ED
:1013C000029009F1010941F80290DCF80020DF6A7F
:1013D000D26A974201D9184A15600268002AA2D140
:1013E0000BB1FFF737FD154D2C6844B1124E0127A4
:1013F000FFF7B0FE00B13760013CF9D12C600E4B15
:101400001B68002B3FF47BAF0D4B4FF080525A60AE
:1014100040BFBFF34F8FBFF36F8F012470E700BF52
:10142000B41A0020EB950000AC1A0020F81A002036
:10143000BC1A0020701A00203C1B0020F41A002067
:1014400000ED00E0641A002010B5044648B90E4BC8
:101450004FF080525A6040BFBFF34F8FBFF36F8F82
:1014600010BD0A4B1B6823B109494FF4A46000F07A
:10147000D5FDFFF761FE00212046FFF799FCFFF73D
:101480002DFF0028E3D0EBE700ED00E0B41A0020C8
:10149000EB95000038B5154B1A68154B12B10122B7
:1014A0001A6038BD1A60134B134D1C68B4FA84F4EB
:1014B000C4F11F0414236343EB5823B90F4940F6CA
:1014C0002A4000F0ABFD142202FB04F3E9180833B4
:1014D0004868406848602B44984204BFCB684B6022
:1014E00002FB04546368DA68054BD9E7B41A00209C
:1014F0003C1B0020BC1A0020701A0020EB95000055
:10150000641A002038B50D46044620B9084940F653
:10151000424000F083FD074B196820461831FFF761
:1015200040FA28460121BDE83840FFF741BC00BF22
:10153000EB950000641A002070B50D46164604466F
:1015400020B9114940F6784000F068FD0F4B616802
:101550001A68D1611A688868106218688A68183039
:10156000506018681B68183088609C6223680133DB
:10157000002E236031460CBF28464FF0FF30BDE8F7
:101580007040FFF715BC00BFEB950000641A002007
:1015900038B5C368DC6824B92F4940F6A84000F08C
:1015A0003DFDD4E90721A36A9160D4E90712516097
:1015B0005A6804F118018A4204BF226A5A60002264
:1015C000A2621A68013A1A60244B1B68002B35D1BD
:1015D000D4E9022163699160D4E9021251605A682A
:1015E000201D824204BFE2685A60002262611A68CC
:1015F000013A1A601A4AE16A156801238B402B43AD
:101600001360184A142303FB01214968A1608D6807
:10161000E5608D6868608860E16A4B43D11861615C
:10162000D1580131D150104BE26A1B68DB6A9A42F3
:1016300083BF0E4B01201860002038BD0C4B5A6848
:10164000E261906820629068416091601A68A362CC
:1016500001321A60E7E700BFEB950000B41A0020E2
:10166000BC1A0020701A0020641A00203C1B0020C5
:10167000F81A0020034B1B680360034B1B68436090
:10168000704700BFF01A0020381B002070B50D46CF
:10169000044620B9154940F6235000F0BFFC25B997
:1016A000124940F6245000F0B9FCFEF78FFF104BB2
:1016B0001A682B68591C16D00E48266800686168A5
:1016C000864208D0914206D800232B600124FEF701
:1016D00097FF204670BD521A9342F5D99B1A2B6092
:1016E0002046FFF7C7FF0024F1E700BFEB9500009D
:1016F000381B0020F01A0020014B01221A607047AD
:101700003C1B0020054B1B6833B1054B1B68002BAD
:101710000CBF022000207047012070470C1B0020E6
:10172000B41A002008B5EFF31183402383F3118826
:10173000FFF710FD20B1044B4FF080525A6040BFBC
:10174000002383F3118808BD00ED00E0074BE02281
:1017500083F82320064B074A1B6803F500739B0A96
:10176000013B536007231360704700BF00ED00E0AA
:101770000800002010E000E038B5054D044645F0B3
:1017800001054FF47A40A847013CFAD138BD00BFAB
:10179000709600007FB506460D46144672B600F0FE
:1017A00073FF00F0CDFD0028FBD1374802F02AF886
:1017B00044F201039E4254D044F202039E425ED1A1
:1017C00022886168314802F01DF801F031F908B94A
:1017D00001F0F8F80023ADF80C308DF80E3003A9B5
:1017E000012319208DF80D3001F02CF903A91820E0
:1017F00001F028F903A9172001F024F9192001F0BC
:10180000DDF9182001F0DAF9172001F0D7F94FF4CB
:10181000FA70FFF7B1FF192001F0A2F9182001F0CA
:101820009FF9172001F09CF93220FFF7A5FF19203E
:1018300001F0C4F9182001F0C1F9172001F0BEF938
:101840004FF4FA70FFF798FF192001F089F918207A
:1018500001F086F9172001F083F9FA20FFF78CFFD9
:10186000CCE7A668304601F003F8236801950093A1
:10187000024663680648314601F0C4FFA5E72946E1
:10188000044801F0BFFFA0E7F895000011960000A2
:101890002C9600005696000007B501F0C9F808B96B
:1018A00001F090F80023ADF804308DF8063001A95E
:1018B000012319208DF8053001F0C4F801A9182082
:1018C00001F0C0F801A9172001F0BCF8192001F0BF
:1018D00075F9182001F072F9172001F06FF94FF433
:1018E000FA70FFF749FF192001F03AF9182001F0CA
:1018F00037F9172001F034F93220FFF73DFF1920A6
:1019000001F05CF9182001F059F9172001F056F99F
:101910004FF4FA70FFF730FF192001F021F9182079
:1019200001F01EF9172001F01BF9FA20FFF724FF40
:10193000CCE70369C1688B429DBF8268D21802F16F
:10194000FF3203F1FF3394BF501A581A70472DE944
:10195000F041D0E902670446F61B4068964288468B
:101960001546384405D901F069FE3D44E560BDE8FF
:10197000F0813246AD1B01F061FE2A4608EB0601FC
:10198000606801F05BFEF1E72DE9F843C5680646A3
:10199000894617464FF000083469B3687068A5425D
:1019A00028BFE418013C621B5C1BBC4228BF3C46BC
:1019B000944228BF144649462844224601F03EFE80
:1019C000B3682544AB4208BF00253F1BA044A14497
:1019D000F560E1D14046BDE8F883000010B5114C38
:1019E000114AA2610223C4E90433104BE361A264EB
:1019F0004FF400730E4A2362E264002310220D4963
:101A0000A362E01D6362E362A3656365E36522652B
:101A100001F0D4FF0849204601F0D0FF2023A37134
:101A200010BD00BF1429002076960000701F002012
:101A3000601F00207F96000083960000F8B5184CC8
:101A4000182300FB033503FB00402544C46A012C26
:101A50000F46164611D003D3022C1BD000240AE0F7
:101A60002846FFF766FF864205D8324639462846A3
:101A7000FFF76DFF34462046F8BD2846FFF759FFB3
:101A80008642344628BF0446224639462846FFF798
:101A90005EFFF0E72846BDE8F840FFF775BF00BFDE
:101AA0001429002070B50B4B1B7804460D461646D2
:101AB0000BB9FFF793FF002000F0ECF932462946FE
:101AC0002046FFF7BBFF0446002000F0F3F9204654
:101AD00070BD00BF1429002010B511461C461A46DF
:101AE0000020FFF7DFFF204610BD00B583B0029055
:101AF0000091019244F2010071466A46FFF74AFEE6
:101B000003B000BD024B4FF43C6043F001031847A3
:101B100090960000F8B51F491F4B0025C1F84051B1
:101B2000C1F84451C1F84851C1F84C51C1F80051B5
:101B3000C1F804511B684BB3D1F804451749096833
:101B4000641A24F07F442F461A68A24209D8A41AC6
:101B500015441A7CDE691AB11F74D3E90520904739
:101B6000AEB90F4B0F4A197813788B4205D1013368
:101B7000DBB2022B08BF0023137012780A4B43F824
:101B800022500A4B4FF48012C3F80021F8BD3346AF
:101B9000DAE700BF00100140902200208C220020D4
:101BA00088220020892200208022002000E100E01D
:101BB0002DE9F74F9C4A9D49137809789C4D99422D
:101BC0003CD00133DBB2022B08BF002313709949CC
:101BD0001278994B0F6853F822003B1823F07F438B
:101BE00000220B602B6816461446944613B942B186
:101BF0002B6006E0196881420ED902B12B60091AE8
:101C000019604FF001082B68DFF834A20093002719
:101C1000BEB9DFF834B260E0401A0C44D968C3F8AA
:101C200000C0D3F81CE031B13A1922F07F42C3E979
:101C30000121DE611E4601227346D7E70026B04629
:101C4000E1E73446F6697B4A63681268DFF8FCC155
:101C5000A068991A21F07F41614500F2A5800144F6
:101C60002160012222742A680023C4E90133E36160
:101C7000002A40F0A2802C60CAE75A1C9BF8021090
:101C8000D2B291428BF8002004BF00228BF80020D2
:101C9000182202FB03B32A6819799C68022974D0C0
:101CA00003297ED0012918D1217CB1B9DA6862609C
:101CB0001A69A2605A69E2609B69A3615F4B1B7855
:101CC000002BC0D06160BEE79C4200F09080994636
:101CD000DB69002BF8D1002323749BF800309BF8BC
:101CE00001209A42C9D12B682FB9009A934202D1A0
:101CF000B8F1000F43D0002B41D0D3F800A0504DD5
:101D00004C4BD5F804751C68DFF844813E1B98F8ED
:101D1000003026F07F4603369BB94FF48033C5F878
:101D20004433C5F80433474B4FF400324FF00109F8
:101D3000C3F880211A60C5F80090FFF7E3FE88F829
:101D40000090B2452CBF5444A41924F07F44C5F838
:101D50004045D5F80435DB1B23F07F43E41B0333F8
:101D600024F07F44A3420AD9D5F80435C5F840359C
:101D7000FFF7C8FE334B4FF40032C3F800212F4B5E
:101D800000221A7003B0BDE8F08F13469146A0E719
:101D90001174D2690123002AFAD1002B9DD02A6048
:101DA0009BE700231946F6E7D31A23F07F438342CB
:101DB00034BFC31A0023236053E721681368994294
:101DC00013D8591A1160E26155E7091AD8691A4601
:101DD00038B1034618688842F7D3401A186018468D
:101DE00013462160E061DC6112E71346F2E74C45DF
:101DF0000DD1D3692B6053B90E4801920121CAF865
:101E0000081003600D4B1970FFF77CFE019AE16921
:101E10002368C9F81C1011B1086803440B602B68D3
:101E20009A4218BF012756E7882200208922002005
:101E3000902200208C220020802200207C22002082
:101E40000010014000E100E070210020FEFF7F0053
:101E50007D22002072B6024A136801331360704776
:101E600094220020034A1368013B136003B962B651
:101E7000704700BF94220020EFF30583C3F30803EB
:101E80002BB9EFF31480C04300F00100704701202C
:101E90007047000008B5FFF7EFFF012803D00449A1
:101EA000432000F0BBF8BDE80840FFF7D3BF00BFF8
:101EB0009696000008B5FFF7DFFF012803D004491C
:101EC000512000F0ABF8BDE80840FFF7CBBF00BFE2
:101ED00096960000024B1B680021986801F0A6BC92
:101EE0000C0000201EF0040F1CBFEFF309800AE075
:101EF000EFF308800549064A884201D8904202D88B
:101F00008D464FF00000034B1847000000000120F1
:101F100000E00020191F00002DE9F347054600F0FE
:101F2000B3FB00F00DFA0028FBD12F4B2F4C9F6A1A
:101F30002F4BE41AE408240444F00104002D4ED091
:101F4000AA692C49204600F07BFBEB680193AB6843
:101F500000932949D5E90023204600F087FBEB696F
:101F600000932649D5E90423204600F073FB1E4B5D
:101F7000DB6A980703D52249204600F05DFBDFF8B5
:101F80009490DFF894A000264FF0010808FA06F3B9
:101F90003B4206D059F826201AB15146204600F09F
:101FA0004FFB01361A2EF1D1390605D50E4B1549D6
:101FB0005A6B204600F044FB3A0405D50A4B1249FF
:101FC0009A6B204600F03CFB104B1B68DB0700D5EA
:101FD00000BE2846FFF760FC02B0BDE8F0870C4960
:101FE000204600F029FBC2E700ED00E0A8A80000B1
:101FF00040A80000F99600000E97000043970000EB
:102000009E970000ED9700000D980000F0ED00E0B5
:102010006B97000028980000E297000007B5ADF824
:10202000000001916A46002144F20200FFF7B2FB72
:1020300003B05DF804FB50E8002F0B4640E8003C7D
:102040009CF0000FF7D11046704750E8003F43EA7C
:10205000010240E8002C9CF0000FF6D110467047BA
:1020600050E8002F02EA010340E8003C9CF0000F1A
:10207000F6D11046704750E8003F03EB010240E8FC
:10208000002C9CF0000FF6D11046704750E8003F3E
:10209000A3EB010240E8002C9CF0000FF6D11046A3
:1020A00070470121FFF7D1BF0021FFF7D9BF000022
:1020B00038B5044620B912494FF49270FFF7AEFFCD
:1020C0000020FFF7E7FE2268616813688B4215D98C
:1020D000591E116013F8015C228AE36802FB053582
:1020E0002268A36811685B1A1179DBB2994200D2A9
:1020F00013710020FFF7DEFE284638BD0025F8E703
:10210000509D000038B50C46054620B90E4940F2F6
:102110004710FFF783FF24B90B494FF4A470FFF772
:102120007DFF0020FFF7B6FE2A681368591C116076
:10213000EA68A41A2A8AB4FBF2F41C700020BDE8F5
:102140003840FFF7B7BE00BF509D000038B5084CBF
:1021500004F108030546002818BF1C4623682BB16C
:102160001A6822605B6828469847F7E738BD00BFC9
:10217000A022002020B9054B01225A70FFF7E6BFCC
:10218000012802D1014A9070F8E770479822002098
:1021900038B5094C23786BB908486360A3602361A4
:1021A000E36000F06FFB054600F082FB0123237023
:1021B000284638BD8525FBE79822002075210000C0
:1021C000037813F0040216D003F00303012B03D0AD
:1021D000022B09D0012070470A6800880232C0F340
:1021E000831002440A60F5E70B684288023303EB70
:1021F00092130B60EEE71046704700002DE9F04F98
:10220000484C87B00D460646871C00200092FFF719
:1022100041FE23682B60D4E9012313442268013373
:102220009B1A04F21C4804F5836B04F21449BB4268
:1022300019D3009A0023002A6CD0012262F3010313
:1022400043F0040366F389132168A2680A4003324D
:102250000F44002044F822302760FFF72BFE0120B6
:1022600007B0BDE8F08F01214046FFF704FF584654
:10227000FFF717FF0DF1180A4846FFF712FF6068D5
:102280004AF8100DA5682840033004EB8000514641
:10229000FFF796FF02460298002AF4D105EA0003F0
:1022A00004EB8303811CDB6803930130054004EBDE
:1022B000850503F00303012B0291ED6823D0022B67
:1022C00008D0194901924FF4BF70FFF7A7FE019A99
:1022D000154607E0BDF80E309B0903332D0C01EBCA
:1022E000930302934846FFF7DFFE08B1029B636049
:1022F00029464046FFF7BFFED4E901231344226874
:1023000001339B1A93E7BDF80C30C3F383132D0CF4
:102310000B44E6E7022262F3010343F0040366F391
:102320009F5391E77C230020C19D0000034BD3E91C
:102330000030C31A58425841704700BF7C23002028
:102340002DE9F04385B0FFF7F1FF0646002840F085
:10235000F9807D4DC5F81804BFF34F8F6868AC68ED
:1023600004AF47F8100D2040033005EB80003946DC
:10237000FFF726FF009B18B1D5F81824002A5FD07C
:1023800004EA0302991C013305EB8202234005EBAA
:102390008303D268DB68029302F00303022B0192ED
:1023A000009162D1BDF8063068484FEA9318B8F141
:1023B000500FC14628BF4FF0500969F38F1309F140
:1023C0000801ADF8063000F0DDF90746002800F0FE
:1023D000A48000F006FA01A900230822384600F084
:1023E00013FA009924EA01060136B600B14535D941
:1023F0005FFA89F97EB3F6B2A9EB060921400331F1
:102400005FFA89F4B146524E05EB810108234A4632
:10241000384600F0F9F936B109F108032246314691
:10242000384600F0F1F9009B08F1030803EB98032C
:102430000093D5F81834002B4BD1D5F810445BE04D
:102440002A689A4204D86A60304605B0BDE8F08335
:1024500004EA030088E73E493446D7E721400331C8
:1024600008234A4605EB8101DAE7012B55D1BDF877
:1024700004303648C3F38311062928BF062161F3CF
:10248000891302318900ADF8043000F07BF907466A
:10249000002842D000F0A5F90023082201A93846FF
:1024A00000F0B2F90026BDF80420C2F38312B31C79
:1024B00096424FEA8303BCD200994A1C2140033163
:1024C000009205EB81010422384600F09DF90136A7
:1024D000E9E7384600F089F9FFF728FF80F00100AE
:1024E000C6B2B1E7E3685B7923B1236839461B685C
:1024F00020469847E3681C68002CF3D1384600F06A
:1025000074F92046FFF7C6FCD5F818340BB9009BC8
:102510006B600020FFF7CEFCDEE7D5F8104454B91D
:102520000C4B0D480D49C01AC008000440F00200D1
:1025300000F082F8D0E7236820469B689847E3685C
:102540001C68ECE700267FE77C230020C0A8000081
:102550008823002040A8000098A80000269E0000C4
:102560002DE9F74F2F4C80460F46914601A90122D5
:1025700018469B46D4F808A0FFF740FE00283DD03F
:10258000019D0026A91C5E4506EB010240D10021F9
:102590002548FFF750FD80F3100B244B244A4FEAE7
:1025A00018499B1AB9EBD30F04D3224940F2A31068
:1025B000FFF734FD6B1C03EA0A0304EB830349EACB
:1025C0000B42DA6005EA0A030333012114F82320E1
:1025D00068F3C50204F8232034F8232066F3891237
:1025E00024F8232054F8232067F39F2244F8232063
:1025F00061F301026FF3820204F8232094F820347F
:102600001BB1FFF79DFE0028FBD103B0BDE8F08FA2
:102610000AEA020204EB820259F82630D36001363E
:10262000B1E700BF7C23002098270020C0A800004D
:1026300040A80000C19D000000231A46FFF790BF8C
:1026400013B502AC012344F8042D2246FFF788FF9E
:1026500002B010BD1FB5CDE90123069B039301AA6B
:102660000323FFF77DFF05B05DF804FB1FB5CDE93F
:102670000023069B0293079B03936A460423FFF7FC
:102680006FFF05B05DF804FB38B5094A0123D2F8A5
:10269000104482F820341D4604B938BDE3685D71EA
:1026A000236820465B689847E3681C68F4E700BF2E
:1026B0007C2300202DE9F74F99469DF83030019397
:1026C00088461746054618B92249B620FFF7A6FCEA
:1026D000EA8895F805B00BFB02FBABF1040BCB4588
:1026E00003D81C49C420FFF799FC3E68B5F806A042
:1026F00006EB09025A4509F1040188BFABEB090654
:10270000B1FBFAF43E600AFB141144B9AAEB0107CD
:10271000B74228BF37462EB903B0BDE8F08F2D6809
:10272000013CF2E7019A043108EB0403681872B126
:1027300001463A461846F61B00F080FFB2453C447D
:102740002D6857464FF0000128BF3746E3E73A4669
:102750001946F0E73B9E0000F8B546790146721E27
:102760000546002393422D6803D30024A64202D8D5
:10277000F8BD0133F6E70F682846FFF7C3FC0134C4
:102780003946F3E72DE9F843CD1C068A0746FFF7E3
:102790008FFC043E35440446B5FBF6F5F0B14FF42A
:1027A0008073EDB28380C680013D076081464FF0A3
:1027B0000008A84512D23846FFF77AFC064648B111
:1027C00063790133637108F10108C9F800000760FB
:1027D0008146EEE72046FFF7BFFF34462046BDE8BE
:1027E000F88301210430FFF746BC10B501210446EF
:1027F0000430FFF74BFC10F0FF0F04D12046BDE87A
:102800001040FFF7A9BF10BD30B585B0144604AA2B
:10281000002542F8044D0095FFF74CFF039BA342AF
:1028200003D00349F620FFF7F9FB05B030BD00BF28
:102830003B9E00000D4930B5A1F58C7202259142F6
:1028400001D800200EE08B1ADB1093FBF5F302EBAE
:10285000C30452F83330834205D802D204F108028F
:10286000EDE7606830BD2146E9E700BFD09F00007A
:1028700008B5FFF7DFFF024B002808BF184608BD68
:10288000A29E000010B5044618B90749A020FFF722
:10289000C5FB064B187920B901221C601A715871CA
:1028A00010BD8520FCE700BF61A30000A027002029
:1028B00008B50B4B1B791BB90A49B920FFF7AEFBD2
:1028C000094B1A68D2075FBFE02283F80023012278
:1028D0001A604FF080430122C3F8182508BD00BFDD
:1028E000A027002061A3000000E100E007B5154B20
:1028F0001A687AB100221A601B680093009B4FF09F
:1029000080430122C3F808230F4B587910B95A713C
:102910001B6898470D4B1A6882B100221A601B6829
:102920000193019B4FF080430222C3F80823064B1A
:102930001B68012003B05DF804EB184703B05DF895
:1029400004FB00BF00010040A0270020040100405C
:1029500000F1804000F5C040002382B003600368AE
:102960000193019B02B07047054B4FF0FF320728DF
:1029700043F8202084BF1B1883F84820704700BF0D
:10298000A827002002494FF4F370FFF747BB00BFB0
:10299000C2A300001F2838B504460D4601D9FFF731
:1029A000F1FFA00000F1A040D0F8003723F440333D
:1029B000C0F80037D0F8003743EA0543C0F80037C5
:1029C00038BD000010B5164C94F8583033BBFF21C9
:1029D000E2180133202B82F83010F9D10021C8B25F
:1029E000FFF7C2FF01310C29F9D1042200210D4863
:1029F00000F0BEFE0C4BE02283F8062340221A6052
:102A00004FF4BE70FFF7A4FF084B4FF00042C3F82D
:102A10000423012384F85830002010BD0820FCE76F
:102A2000A8270020FC27002000E100E00060004013
:102A3000034B93F85800003018BF0120704700BFC7
:102A4000A82700201F2870B504460D4604D9414927
:102A50004FF49870FFF7E2FA3F4E96F85830012B8A
:102A600004D03C4940F23110FFF7D8FA25B9394972
:102A70004FF49970FFF7D2FA331993F930200132ED
:102A800065D1AA78002A54D0002356F823100131CA
:102A90004FEA830248D1311902F1804281F8303087
:102AA000002102F5C04246F82310D2F810052B7819
:102AB000697820F498101B04090520F4F85001F4FB
:102AC000801103F44033C2F810050B432102D2F801
:102AD000100501F4F8510B430343C2F810356B782D
:102AE000012B4FF0010528D11F2C01D9FFF74AFF18
:102AF0004FF0A043A540C3F808551F2C01D9FFF79C
:102B000041FF04F5E0724FF0A043032143F8221087
:102B1000E2081249012304F0070403FA04F48B5C71
:102B20001C438C54002003E00133082BADD104205A
:102B300070BDFE2283F83020D1E71F2C01D9FFF7AA
:102B400021FF4FF0A043A540C3F80C55D5E708205E
:102B5000EEE700BF13A40000A8270020FC270020F8
:102B60001F2838B5054604D912494FF4BE70FFF747
:102B700055FA114C621992F93020013204D10D49F5
:102B800040F27D10FFF74AFA631993F83030072BB3
:102B900004D808494FF4BF70FFF740FA1F2D01D940
:102BA000FFF7F0FE012303FA05F54FF0A043C3F849
:102BB000085538BD13A40000A82700201F2838B5E9
:102BC000054604D912494FF4C370FFF727FA114C98
:102BD000621992F93020013204D10D4940F2871078
:102BE000FFF71CFA631993F83030072B04D8084913
:102BF0004FF4C470FFF712FA1F2D01D9FFF7C2FE80
:102C0000012303FA05F54FF0A043C3F80C5538BD76
:102C100013A40000A82700202DE9F04F87B000245E
:102C20005B4A5C4E5C4D039401211368A2F5C040E1
:102C3000012B80B206D1D6F804330B4202D0FFF745
:102C400087FE0C430432AA424FEA4101EDD1534BB7
:102C50001B68012B0AD14FF4BE70FFF779FE4FF0CD
:102C6000A04344F00044D3F81035039314F0FF0F51
:102C70001AD04B4F00250126344210D0AB0003F18F
:102C8000804303F5C043D3F81005D3F8101557F867
:102C90002530C0F30420C1F3014103B19847013549
:102CA000082D4FEA4606E7D1002C6EDA00224FF0DD
:102CB000FF33CDE904233A4F4FF0000A56464FF058
:102CC000A04907EB0A0393F95040631C46D0E4B2D5
:102CD000012224F0C00504F0070B02FA0BFBEB08FD
:102CE00006AAD11811F8042C12EA0B0F36D07A1963
:102CF000A40992F9302057F82280B8F1000F0AD1C8
:102D0000032C2BD10DF1100C1CF8030040EA0B0032
:102D10000CF8030001E0032CF4D01F2D03D901911E
:102D2000FFF730FE019911F80C1C05F5E07311EA6C
:102D30000B0F59F82330C3F3014320D0022B0DD1E0
:102D4000032C05D121462846FFF724FE0136F6B2B2
:102D5000B8F1000F02D021462846C0470AF1010A07
:102D6000BAF1040FADD186B14FF0A043039AD3F866
:102D700010359A4209D00393049B05939CE7032BDB
:102D8000ECD1032CE4D10221DDE707B0BDE8F08FE0
:102D90000061004000600040206100407C61004014
:102DA000A827002010B5054C22681AB90449512003
:102DB000FFF734F92368BDE81040184704280020C5
:102DC0007AA400000023435082B043580193019B32
:102DD00002B0704770B5D0F8103105460C4653B1BB
:102DE0004FF48871FFF7EEFF63795A0703D5236824
:102DF0000BB101209847D5F814315BB14FF48A71BB
:102E00002846FFF7DFFF63791B0703D523680BB163
:102E100002209847D5F81C315BB128464FF48E71DB
:102E2000FFF7D0FF607910F0100002D1236803B1E2
:102E30009847D5F8043163B14FF482712846FFF703
:102E4000C1FF0123237123681BB10320BDE870403B
:102E5000184770BD01490248FFF7BCBF0C2800208D
:102E600000C0014001490248FFF7B4BF1428002008
:102E70000010024001490248FFF7ACBF1C280020A7
:102E80000020024000F1804000F5E040002382B0C5
:102E9000036003680193019B02B07047F0B5514B8A
:102EA000514C1B6885B0DBB14FF4827094F82E2032
:102EB000FFF7E8FF12B194F82F30A3B163680293D3
:102EC0002389ADF80C30E36800218DF80410002B45
:102ED00044D12374236801A89847002384F82F3035
:102EE00094F82E3003B3414B1B68EBB14FF4807064
:102EF000FFF7C8FF94F82D20638B91B28B4238D92D
:102F00005B1A21899BB26383CB1A616801EB430191
:102F1000374BC3F82C16C3F830264FF48270FFF7F6
:102F2000B1FF344B01221A60334B1B685BB14FF485
:102F30008870FFF7A7FF002304A82374022300F87A
:102F40000C3D236898472D4B1B6813B34FF48A70D0
:102F5000FFF798FF0023237405B0F0BD208B60833A
:102F600063602081E160002AB4D1214B01221A6004
:102F7000B0E7D2D1E368012184F82F103BB10021E2
:102F800061831B49C1F82C36C1F83026C5E763833D
:102F9000C3E766694FF000470125002EDCD0B6FA82
:102FA00086F227FA02F34632920026EA030602F17D
:102FB000804303F5E0431B68002BEED01046FFF77B
:102FC00061FFA2F58C72D30882F00402C2F3800282
:102FD0008DF808308DF804508DF80920236801A879
:102FE0009847DAE70471004024280020007100406F
:102FF00000700040047000401071004014710040E7
:1030000002494FF4F370FFF709B800BFC2A30000F4
:103010001F2810B5044601D9FFF7F2FF012303FA78
:1030200004F44FF0A043C3F80C4510BD1F2810B5A1
:10303000044601D9FFF7E4FF012303FA04F44FF03B
:10304000A043C3F8084510BD13B54FF04023D3F893
:1030500018310BB3114B124C00221A601B680193FC
:10306000019B236823B90F494FF42770FEF7D6FF61
:10307000E07FFF2803D0A37F5BB1FFF7C9FF0023E8
:1030800063772372D4E90031074802B0BDE81040ED
:103090001847FFF7CBFFF2E702B010BD1841004020
:1030A00054280020E5A400005C2800202DE9F74307
:1030B000002406460F4600F5A0754FF48038A1465F
:1030C00004F150002B68800080B26BB1D6F8043355
:1030D00008FA04F21A4207D0C5F800902B68019351
:1030E000019BD7E9003198470134042C05F1040510
:1030F000E6D103B0BDE8F08301490248FFF7D6BF2F
:10310000782800200080004001490248FFF7CEBF28
:1031100084280020009000400023435082B0435890
:103120000193019B02B07047F0B5504C236887B003
:1031300023B94F4940F24520FEF770FF4D4AD2F8BF
:1031400024311546A3B14FF492711046FFF7E4FF06
:10315000D2F8043163B9A368C2F808330223A3602C
:10316000A368C2F8043301231362536107B0F0BDB2
:10317000D5F80431002B49D03F4F3E484FF48271BF
:10318000FFF7CAFF0FCF01AE0FC63B68336094F85C
:103190002E307BB1237B012B0CBFD5F83C25D5F815
:1031A0004C250292022B334B0CBFD3F83C35D3F89D
:1031B0004C3503934FF4B0712E48FFF7ADFF4FF439
:1031C000AE712C48FFF7A8FF94F8303013B194F893
:1031D0002E303BB1274B0022C3F80022A260274AC1
:1031E000C3F80823234AD2F8C434C2F8C4349A0777
:1031F00036D501238DF8003094F830300BB984F8BF
:103200002F30D4E9003168469847AFE74FF4A471F6
:103210001848FFF781FF237B83B9174F0FCF01AE0B
:103220000FC63B68336094F83030002BDAD1C5F814
:103230000032A360114BC5F80833D3E74FF4007395
:10324000C5F8003240F20223A36003F1CE73C5F843
:103250000833A368C5F804330123AB602B6285E70C
:1032600013F0040318BF0223C4E700BF9028002016
:103270004AA50000003000409C28002002029C016A
:103280000C4B1B78062B10D10B4B1B681A070CD16B
:103290000A4B186800F0F003302B08D000F0E00073
:1032A000A0F1400358425841704700207047012068
:1032B000704700BFE00F00F0E40F00F0E80F00F0EF
:1032C000094B1B78062B0CD1084B1B681A0708D139
:1032D000074B186800F0F000A0F130035842584145
:1032E00070470020704700BFE00F00F0E40F00F0CF
:1032F000E80F00F008B5FFF7C3FF28B17D4B7E4A09
:103300001B68C3F304231360FFF7DAFF10B17B4B94
:103310007B4A1A60FFF7B4FF28B17A4B7A4A1B68E0
:10332000C3F342331360FFF7CBFF20B1774AD36872
:1033300023F08073D360FFF7A3FF40B14FF08043C9
:103340000022C3F80C21C3F81021C3F83825FFF779
:10335000B7FF10B16E4B03221A60FFF7B1FF40B107
:103360006C4B05221A6001229A6700229A603F2264
:103370005A60694B1B78062B50D1684B1B681907A4
:103380004CD1674B1B6803F0F003502B46D14FF034
:103390008052644BD2F80414C3F82015D2F80814F4
:1033A000C3F82415D2F80C14C3F82815D2F8101459
:1033B000C3F82C15D2F81414C3F83015D2F8181429
:1033C000C3F83415D2F81C14C3F84015D2F82014F1
:1033D000C3F84415D2F82414C3F84815D2F82814B9
:1033E000C3F84C15D2F82C14C3F85015D2F8301489
:1033F000C3F85415D2F83414C3F86015D2F8381451
:10340000C3F86415D2F83C14C3F86815D2F8401418
:10341000C3F86C15D2F84424C3F87025FFF730FFC9
:1034200028B1414B414A1B6803F04F031360FFF77B
:1034300027FF48B14FF08043D3F80024D20744BFA0
:103440006FF00102C3F80024394B1B68062B08D12A
:10345000384B1B68062B01BF374A136843F480635F
:103460001360364AD2F8883043F47003C2F88830CB
:10347000BFF34F8FBFF36F8F4FF01023D3F80022AD
:10348000002A03DBD3F80432002B2FDA2C4B012265
:10349000C3F80425D3F80024002AFBD04FF01022F3
:1034A0001521C2F80012D3F80024002AFBD04FF0F7
:1034B00010231522C3F80422214B1A46D3F8001416
:1034C0000029FBD00021C3F80415D2F80034002BEA
:1034D000FBD0BFF34F8F19491A4BCA6802F4E06260
:1034E0001343CB60BFF34F8F00BFFDE7164B174A66
:1034F0001A6008BD240300104035014074C0074025
:103500000DF0ADBA440200103C050040F0ED00E0C3
:10351000A005004010560040E00F00F0E40F00F05E
:10352000E80F00F000C0004058020010E40E004018
:1035300030010010340100103C17004000ED00E0A5
:1035400000E001400400FA05080000200090D003CC
:103550000649074A074B9B1A03DD043BC858D05065
:10356000FBDCFFF7C7FEFCF76BFE000018A90000AC
:1035700000000020C8090020FEE7FEE7FEE7FEE7A6
:10358000FEE7FEE7FEE7FEE7FEE7FEE708B50021FF
:10359000044602F0E3F8044B1868C36B03B1984784
:1035A000204605F095F900BFB4A5000070B50D4E9A
:1035B0000D4D761BB61006D00024013455F8043B9F
:1035C0009847A642F9D1094E094D761B05F096FFA2
:1035D000B61006D00024013455F8043B9847A642A3
:1035E000F9D170BDB8090020B8090020C409002035
:1035F000B8090020044B054A1B685B6B002B08BF11
:10360000134693F8280170470C000020380400206E
:1036100082B049B15AB16BB113780B601278101CAB
:1036200018BF012002B0704701A9002AF3D110464B
:1036300002B070476FF00100F4E700BF844641EA32
:10364000000313F003036DD1403A41D351F8043B1A
:1036500040F8043B51F8043B40F8043B51F8043B6C
:1036600040F8043B51F8043B40F8043B51F8043B5C
:1036700040F8043B51F8043B40F8043B51F8043B4C
:1036800040F8043B51F8043B40F8043B51F8043B3C
:1036900040F8043B51F8043B40F8043B51F8043B2C
:1036A00040F8043B51F8043B40F8043B51F8043B1C
:1036B00040F8043B51F8043B40F8043B51F8043B0C
:1036C00040F8043B51F8043B40F8043B403ABDD27B
:1036D000303211D351F8043B40F8043B51F8043B1D
:1036E00040F8043B51F8043B40F8043B51F8043BDC
:1036F00040F8043B103AEDD20C3205D351F8043BAC
:1037000040F8043B043AF9D2043208D0D2071CBF77
:1037100011F8013B00F8013B01D30B8803806046A0
:10372000704700BF082A13D38B078DD010F0030316
:103730008AD0C3F10403D21ADB071CBF11F8013B86
:1037400000F8013B80D331F8023B20F8023B7BE7D5
:10375000043AD9D3013A11F8013B00F8013BF9D200
:103760000B7803704B7843708B788370604670479A
:10377000F0B4860743D0541E002A3ED0CAB2034696
:1037800002E014F1FF3438D303F8012B9D07F8D180
:10379000032C2BD9CDB245EA05250F2C45EA05456A
:1037A00016D9A4F110073F0903F1200606EB07160E
:1037B00003F1100242E9045542E902551032B242C7
:1037C000F8D104F00F040137032C03EB07130DD9D4
:1037D0001E462246043A032A46F8045BFAD8221F02
:1037E00022F003020432134404F003042CB1C9B2E2
:1037F0001C4403F8011B9C42FBD1F0BC70471446EB
:103800000346C5E70FB400B5074983B004AB0868A9
:1038100053F8042B8168019300F0A2F903B05DF81E
:1038200004EB04B0704700BF0C00002000290CBF5F
:10383000022200224FF4806300F000B82DE9F0432B
:103840005D4C256883B00446884616461F4615B170
:10385000AB6B002B7ED0022E05D0012E00F2A9808A
:10386000002FC0F2A680636EDA0735D521462846C0
:1038700003F03CF8216B41B104F14003994202D0BE
:10388000284603F031F900232363B4F90C300022F9
:103890001806A261626061D423F44A6323F0030333
:1038A000022EA3811FD10025616E002004F1430286
:1038B00043F00203A060C9074FF00100A38122601A
:1038C000C4E9042004D49B0502D4A06D03F03EFAA1
:1038D000284603B0BDE8F083A3899B05C6D4A06D3C
:1038E00003F032FAC2E701AB6A462146284603F0EC
:1038F0002FFAA3891843A081002F36D1009F3846A4
:1039000003F09EFA8046002842D0A38943F080034A
:10391000A381AB6B7BB3009AB4F90C30C4F8008080
:10392000BA421CBF43F40063A381012E04BF43F0DD
:103930000103A3819BB213F00802C4E904871ED1DE
:10394000A260656E15F00105BDD00025284603B0C4
:10395000BDE8F083284603F025F87CE72169284676
:1039600003F0C2F8B4F90C3096E7B8F1000FC6D0F6
:10397000AB6B002BCFD1284603F014F8CBE7DA0766
:1039800004D57F420022A761A260DAE7A760D8E7EA
:10399000DDF80090B94504D1B4F90C304FF0FF3593
:1039A00082E7484603F04CFA80460028F4D04F46A0
:1039B000ABE74FF0FF358BE70C00002080EA0102F7
:1039C000844612F0030F4FD111F0030F32D14DF89E
:1039D000044D11F0040F51F8043B0BD0A3F1013258
:1039E0009A4312F0803F04BF4CF8043B51F8043B6B
:1039F00016D100BF51F8044BA3F101329A4312F0E3
:103A0000803FA4F101320BD14CF8043BA24312F0E9
:103A1000803F04BF51F8043B4CF8044BEAD02346E6
:103A20000CF8013B13F0FF0F4FEA3323F8D15DF898
:103A3000044B704711F0010F06D011F8012B0CF860
:103A4000012B002A08BF704711F0020FBFD031F8D8
:103A5000022B12F0FF0F16BF2CF8022B8CF800205F
:103A600012F47F4FB3D1704711F8012B0CF8012BE2
:103A7000002AF9D1704700BF0000000000000000DC
:103A800090F800F06DE9024520F007016FF0000C9E
:103A900010F0070491F820F040F049804FF0000446
:103AA0006FF00700D1E9002391F840F000F1080021
:103AB00082FA4CF2A4FA8CF283FA4CF3A2FA8CF359
:103AC0004BBBD1E9022382FA4CF200F10800A4FAC0
:103AD0008CF283FA4CF3A2FA8CF3E3B9D1E9042314
:103AE00082FA4CF200F10800A4FA8CF283FA4CF34B
:103AF000A2FA8CF37BB9D1E9062301F1200182FA05
:103B00004CF200F10800A4FA8CF283FA4CF3A2FA0A
:103B10008CF3002BC6D0002A04BF04301A4612BA18
:103B2000B2FA82F2FDE8024500EBD2007047D1E91B
:103B3000002304F00305C4F100004FEAC50514F0AA
:103B4000040F91F840F00CFA05F562EA05021CBF7B
:103B500063EA050362464FF00004A9E70000000095
:103B60002DE9F04FD7B01C4689461746054603900D
:103B700003F0D8F8036816931846FFF781FF0894FE
:103B800015901DB1AB6B002B00F00781D9F86410C4
:103B9000B9F90C20C80793B202D4990540F11F81EE
:103BA0009E040AD4D9F8641042F4005321F4005161
:103BB000A9F80C30C9F864109BB21D0740F1B2801F
:103BC000D9F81020002A00F0AD8003F01A020A2A6A
:103BD00000F0C98000239FED867B1093CDE92B3345
:103BE0001793CDE919331B93189305932DAB2A93A3
:103BF0009B463B78CDF81C908DED127B002B00F09E
:103C00005982252B3C4602D11DE0252B03D014F808
:103C1000013F002BF9D1E51B8DB1DDE92B320133DA
:103C20002A44072BCBF80070CBF80450CDE92B3297
:103C300000F3CA800BF1080B059B2B4405932378F6
:103C4000002B00F0378200236678069398468DF8A3
:103C50008B3004F1010A4FF0FF392B250AF1010ADC
:103C6000A6F120035A2B00F22A84DFE813F0AA03FE
:103C7000280428049C02280428042804A7022804F5
:103C80002804C602D2022804D702DC022804F60265
:103C90006D026D026D026D026D026D026D026D02AC
:103CA0006D02280428042804280428042804280471
:103CB000FB0228043C03F303FB02FB02FB02280483
:103CC000280428042804EE03280428049A00280461
:103CD00028042804500328047903280428049003A6
:103CE0002804280428042804280428042804280474
:103CF000FB0228043C03C500FB02FB02FB02D103CC
:103D0000C50070002804B5032804C2039C00DE032C
:103D100070002804500372002C02280428047C023E
:103D2000280472004946039801F0A8FCA0B1D9F814
:103D30006430D80704D4B9F80C30990540F1B78342
:103D40004FF0FF330593059857B0BDE8F08F48F06A
:103D500020089AF8006081E7B9F80C3003F01A02E5
:103D60000A2A7FF437AFB9F90E20002AFFF632AFE6
:103D7000D9F86420D20705D49B0503D4D9F858009C
:103D800002F0E4FF23463A464946039801F026FC38
:103D90000590059857B0BDE8F08F039802F002FE39
:103DA000F4E648F0100818F0200F00F06C83089C2F
:103DB000073424F00703D3E9004503F10802089211
:103DC00028F4806300228CE12AAA0799039803F063
:103DD0004DFF002841F076830DF1B40B2CE7D9F8A4
:103DE000580002F0B1FFB9F90C2093B2D8E600BF39
:103DF000000000000000000043469F0640F12F83B2
:103E0000089C073424F00704D4E9000104F10802F7
:103E1000089204460D46002871F1000205DA2D22B1
:103E2000644265EB45058DF88B2056AAB9F1FF3F3A
:103E3000049200F0B284012254EA050123F08008C4
:103E400040F05981B9F1000F40F01986002A40F086
:103E5000088513F0010356AF099302D0302307F809
:103E6000013D00230A930F9314931193099B9DF82E
:103E70008B204B45B8BF4B46049312B1049B0133D2
:103E8000049318F002030B9302D0049B02330493B3
:103E900018F084032C9C0E933FD1069B04995D1A65
:103EA000002D3ADD102D2B9A29DD5946204620960B
:103EB0001023039C079EBB4604E0103D102D01F12A
:103EC000080118DD0132BA4F1030072ACDE92B2046
:103ED000C1E90073F1DD2AAA314620460C9303F0B4
:103EE000C5FE002840F03D84103D102DDDE92B205B
:103EF0002DA90C9BE6DC209E5F4604468B460132D2
:103F0000AB4B2C44072ACDE92B24CBE9003500F339
:103F1000FF849DF88B200BF1080B72B12B9A0132B4
:103F200001340DF18B000121072ACDE92B24CBE9C7
:103F3000000100F318840BF1080B0B9B6BB12B9B5A
:103F40000133023423A90222072BCDE92B34CBE91C
:103F5000001200F315840BF1080B0E9B802B00F070
:103F60003183099BA9EB0305002D37DD102D2B9A1A
:103F7000904B28DD59462046BB464FF01009374686
:103F80001C46079E04E0103D102D01F1080115DDCF
:103F900001321030072ACDE92B20C1E90049F2DDBA
:103FA0002AAA3146039803F061FE002840F0D98325
:103FB000103D102DDDE92B202DA9E9DC3E462346DE
:103FC0005F4604468B4601322C44072ACDE92B2458
:103FD000CBE9003500F3EF830BF1080B18F4807F79
:103FE00040F080822B9B099ACBF800700133144477
:103FF000072B2C94CBF804202B9300F392830BF126
:10400000080B18F0040F3BD0069B049A9D1A002D54
:1040100036DD102D2B9B21DD1026039FDDF81C8043
:1040200004E0103D102D0BF1080B17DD0133604A41
:104030001034072BCDE92B34CBE90026F1DD2AAA79
:104040004146384603F012FE002840F06C85103DD2
:10405000102DDDE92B340DF1B40BE7DC0133544AAC
:104060002C44072BCDE92B34CBE9002508DD2AAA07
:104070000799039803F0FAFD002840F0E9822C9C90
:104080000499DDE905328A42ACBF9B185B180593A1
:10409000002C40F0D58200232B930A9B1BB10A9978
:1040A000039802F021FD0DF1B40B57463B78002B2D
:1040B0007FF4A7AD2C9BDDF81C90002B41F0E7802E
:1040C00000232B93CBE243469A0640F14E81089C95
:1040D000073424F0070202F10801D2E900450891F3
:1040E000012200218DF88B10B9F1FF3F56A90491F0
:1040F0007FF4A2AE9846012A00F05083022A00F015
:104100001B8356A900E03946E20842EA4572E808F6
:1041100004F0070305461446303354EA050201F85B
:10412000013C01F1FF37EED118F0010F00F01483CC
:10413000302B00F01183049A02393023521A07F809
:10414000013C09920F468CE6A6F1300300221AF8D2
:10415000016B02EB820203EB4202A6F13003092B52
:10416000F5D906927CE5144B179318F0200F00F058
:104170001481089C073424F00703D3E9004503F1B8
:104180000802089218F0010F09D054EA050306D07E
:1041900030238DF88D6048F002088DF88C3028F4BB
:1041A000806302229DE748F001089AF8006055E517
:1041B0000CA600001CA60000D8A50000039E3046F7
:1041C00002F0B0FD436818931846FFF759FC1B90A6
:1041D0000446304602F0A6FD83681A93002C3FF493
:1041E000B8AD9AF80060002B3FF438AD1B78002B77
:1041F0003FF434AD48F4806830E5089B9AF80060DD
:104200001A680692002A03F10403C0F29786089305
:1042100024E58DF88B509AF800601FE59AF800604D
:1042200048F004081AE59AF800602A2E0AF1010203
:1042300001F0B081A6F13003092B92464FF000093E
:104240003FF60EAD1AF8016B09EB890903EB49093A
:10425000A6F13003092BF5D902E548F080089AF859
:104260000060FBE4089C073424F0070494ED007B15
:1042700052EC171B22F000431D938DED1C7A08347D
:10428000DDE91C014FF0FF32BA4B08948DED127B33
:1042900004F076FF002840F06F844FF0FF32B54BFA
:1042A000DDE91C0104F04EFF002840F06584002287
:1042B0000023DDE9120104F03BFF002840F05B859C
:1042C0009DF88B20AC4FAD4B0020032104910A9048
:1042D00028F08008472ED8BF1F46099181460F90CD
:1042E00014901190C9E50898002301688DF88B306F
:1042F0001A468DF8F4100123011D04930A92914689
:104300000F9214921192CDE908133DAFB9E5089BC5
:104310001F6800258DF88B501C1D002F00F039867A
:10432000B9F1FF3F00F011874A462946384603F0AD
:104330003FF80A90002800F0E7850A9BDB1B0993F1
:10434000A94623EAE37308940493CDF82890CDF8A6
:104350003C90CDF85090CDF844909DF88B208CE5A2
:1043600048F010039A063FF5B2AE089ADF0602F154
:10437000040100F17E835D06089A00F1E4849C0547
:1043800040F177831478089100250122A9E67C4B3F
:10439000179318F0200F7FF4ECAE089A18F0100F66
:1043A00002F1040340F0548318F0400F089A40F0E3
:1043B000D08418F4007F00F04B8314780893002514
:1043C000E0E69DF88B309AF80060002B7FF446AC55
:1043D00020238DF88B3041E49AF800606C2E03BFE7
:1043E0009AF8016048F020080AF1010A48F0100824
:1043F00034E4089A18F0200F52F8043B089200F0B9
:10440000A183059A1046D117C3E9000157464DE62E
:104410009AF80060682E03BF9AF8016048F40078AB
:104420000AF1010A48F0400818E40899554B0C6855
:10443000179347F630020431ADF88C2048F00203A0
:1044400008910025022278264BE648F008089AF8E1
:10445000006003E448F010039F063FF5D1AC0899D3
:10446000DD0601F1040200F1FD825C06089900F10D
:104470007584980540F1F68291F900400892E5179D
:1044800020462946C7E4089A18F0100F02F10403E9
:1044900040F0E38218F0400F089A40F0678418F467
:1044A000007F00F0DA8214780893002588E4D9F8B8
:1044B000580002F04BFC4FF0FF33059343E4002E0D
:1044C0003FF4F8AD002301211A4604918DF8F46001
:1044D0008DF88B300A9399460F9314931193099199
:1044E0003DAFCEE4652E40F3CA8000220023DDE913
:1044F000120104F013FE002800F069812B9B224A70
:10450000CBF80020013301340122072BCDE92B34F5
:10451000CBF8042000F306840BF1080B249B109ABF
:104520002C9C934203DB18F0010F3FF46AAD2B9BE8
:10453000169ACBF80020159ACBF8042001331444C6
:10454000072BCDE92B3400F317850BF1080B109BDB
:104550005D1E002D7FF755AD102D2B9A0B4B40F3B0
:10456000E782194610262346039FDDF81C900C466F
:1045700014E000BFFFFFEF7FCCA50000C8A500003E
:10458000ECA50000D8A5000008A600001CA60000AD
:104590000BF1080B103D102D40F3C7820132103390
:1045A000072ACDE92B23CBE90046F1DD2AAA4946AB
:1045B000384603F05BFB00284CD1DDE92B230DF1DD
:1045C000B40BE7E7069B049A9D1A002D7FF7C9AC50
:1045D000102D2B9ABC4B27DD59462046BB461C4666
:1045E0003746079E04E0103D102D01F1080116DD4D
:1045F000013210301023072ACDE92B200C604B60CC
:10460000F1DD2AAA3146039803F030FB002840F080
:10461000A880103D102DDDE92B202DA9E8DC3E46B9
:1046200023465F4604468B4601322C44072ACDE9D7
:104630002B24CBE9003500F392820BF1080B90E4B8
:104640002AAA0799039803F011FB00283FF423AD31
:10465000DDF81C900A9911B1039802F045FAD9F8D7
:104660006420B9F80C30D00702D4990540F1D0810C
:104670005A063FF565AB059857B0BDE8F08F109A24
:104680002B9B012A04F1010403F101050BF108063B
:1046900040F31C810123072DCBF80070CDE92B548A
:1046A000CBF8043000F3BB81159B169A691C1C449F
:1046B00007290B91CDE92B14C6E9002300F3BB8138
:1046C00008360B9A531C1D460995109D0E93002227
:1046D0000023DDE9120105F1FF3906F1080B04F0B2
:1046E0001DFD002840F0C280099DC6F804900137E6
:1046F0004C44072D37602C942B9500F3F9800B9ACE
:1047000006F1100302325E4609929B46199A7260C6
:104710001444099A2C9426AB072A2B9233607FF716
:1047200070AC2AAA0799039803F0A0FA00288FD149
:104730002C9C0DF1B40B64E4179856AF230904F0D8
:104740000F0143EA05732A091C461546435C07F826
:10475000013D54EA0503F1D1049BDB1B0993FFF7EC
:1047600080BBB14676E72AAA0799039803F07EFA40
:1047700000287FF46DAF2C9C0DF1B40BFFF7DDBB6F
:104780002AAA0799039803F071FA00287FF460AF12
:104790002C9C0DF1B40BFFF7E0BB9846002D08BF31
:1047A0000A2C80F0708156AF3034012307F8014D98
:1047B0000993FFF756BB2AAA0799039803F056FA04
:1047C00000287FF445AF2C9C0DF1B40B06E4249B2C
:1047D000002B40F37382DDE910239342A8BF1346F8
:1047E000002B1D460DDD2B9BCBF8007001332C44B4
:1047F000072B2C94CBF804502B9300F3C1820BF1C0
:10480000080B119B002DA8BF5B1B002B1D4640F31E
:104810009980102D2B9A2C4B40F3DB8318462146B0
:104820005B461026BB46DDF80C90079C074604E06B
:104830000833103D102D40F3C78301321031072A91
:10484000CDE92B21C3E90076F2DD2AAA21464846AC
:1048500003F00CFA002840F0A584DDE92B212DABF4
:10486000E7E7CDF8249056AFFFF7FBBAB9F1000F98
:104870007FF74CAFB9F1100F134B40F3598619462F
:10488000224633461027DDF80CB0079C0E9D0E46DD
:1048900007E00833A9F11009B9F1100F40F3538371
:1048A00001351032072DCDE92B52C3E90067F0DD49
:1048B0002AAA2146584603F0D9F9002840F072840C
:1048C000DDE92B522DABE5E71CA6000018F0010F27
:1048D0007FF4E0AE0122072DCBF80070CDE92B5418
:1048E000CBF8042004DC023309930BF1100B0DE725
:1048F0002AAA0799039803F0B9F900287FF4A8AE13
:10490000DDE92B34013309930DF1BC0B2DAEFDE62F
:104910002AAA0799039803F0A9F900287FF498AE12
:104920009DF88B202C9C0DF1B40BFFF7F6BA2AAA48
:104930000799039803F09AF900287FF489AE2C9C1C
:104940000DF1B40B119B18F4806F3B44994640F075
:104950005783249B109A934249DB18F0010F46D1EC
:10496000109ABD18A5EB0905D31A9D42A8BF1D4694
:10497000002D0DDD2B9ACBF8009001322C44072A34
:104980002C94CBF804502B9200F362840BF1080BAB
:10499000002DACBF5D1B1D46002D7FF732AB102DE7
:1049A0002B9AC54B40F3C480194610262346039F1B
:1049B000DDF81C900C4605E00BF1080B103D102DA6
:1049C00040F3B38001321033072ACDE92B23CBE922
:1049D0000046F1DD2AAA4946384603F047F9002887
:1049E0007FF438AEDDE92B230DF1B40BE6E72B9A0B
:1049F0001699CBF800101599CBF8041001320C442D
:104A0000072A2C942B9200F38C820BF1080BA7E75A
:104A1000D9F8580002F09AF9B9F80C3028E62AAA19
:104A20000799039803F022F900287FF411AEDDE91D
:104A30002B542DAE38E62AAA0799039803F016F9ED
:104A400000287FF405AEDDE92B342DAE0B9338E65C
:104A5000146808930025FFF795BB14680893002598
:104A6000FFF7AEB90C680892E51720462946FFF714
:104A7000D2B91468089101220025FFF732BB012A40
:104A80007FF43CAB8FE608F480630022CDE909A6F1
:104A9000CDF82C8056AF9246DDF868801E460AE0BD
:104AA0000023204629460A2204F0A8FB04460D46AE
:104AB00054EA050329D00A2200232046294604F09F
:104AC0009DFB303207F8012C0AF1010A013F002E4C
:104AD000E6D098F800309A45E2D1BAF1FF0FDFD066
:104AE000002D08BF0A2CDBD31B9B1899FF1A1A460E
:104AF000384603F04DF898F80130002B00F096840A
:104B000008F101084FF0000ACAE7049BCDF868805D
:104B1000DB1BCDF840A00A9EDDF824A0DDF82C8038
:104B20000993FFF79EB9C14694E521461C460B4602
:104B300001322C44072ACDE92B24CBE900357FF73D
:104B40005EAAEEE518F0100F40F0F88018F0400F64
:104B500000F05183059A1A805746FFF7A7BA2AAA90
:104B60000799039803F082F800287FF471AD2C9C1C
:104B70000DF1B40BFFF7F5B9DDE9120102460B4662
:104B800004F0FEFA002840F09184612E00F01181BB
:104B9000412E00F0778348F4807326F02002B9F1AB
:104BA000FF3F0E930492139B00F02D84472A00F0E0
:104BB0002484002BC0F2F9829DED127BCDE90A001E
:104BC0008DED1E7B662E00F0EB83462E00F07E847A
:104BD000049B0398452B0CBF09F101054D4628AAFB
:104BE00025ABCDE90032022124AB2A469DED1E0BF8
:104BF00000F0C2FE672E074640F09C8418F0010FBB
:104C000040F0F983289B4046DB1BDDF83880109389
:104C1000249B1193049B472B00F0E781049B462BB8
:104C200000F000830499119BF2B2412908BF0F32B2
:104C300003F1FF3306BFD2B201210021002B2493E0
:104C4000B8BF119B8DF89820BABFC3F101032D2284
:104C50002B22092B8DF8992000F3F983002940F0CD
:104C6000878430228DF89A200DF19B023033137027
:104C7000531C26AA9B1A109A1993012A13440993CC
:104C800040F34284099B159A1344099300230F9320
:104C900014931193099B20F4806023EAE37340F49A
:104CA000807804930B9B002B40F0758299469DF809
:104CB0008B20FFF7E2B800BF1CA600002B9ABD496D
:104CC000CBF80010013201340121072ACDE92B2451
:104CD000CBF8041060DC0BF1080B2BB9109A1AB951
:104CE00018F0010F3FF48DA92B9A1699CBF80010FC
:104CF0001599CBF8041001320C44072A2C942B92FE
:104D000000F382820BF1080B002BC0F2E782109BAC
:104D100001321C44072ACDE92B24CBE900737FF72D
:104D20006EA9FEE42AAA0799039802F09FFF0028C3
:104D30007FF48EAC0DF1B40BFFF7F0BB059A1A604F
:104D40005746FFF7B3B91488089100250122FFF7F1
:104D5000C8B9148808930025FFF714BAB1F90040C8
:104D60000892E51720462946FFF755B8148808939E
:104D70000025FFF725B82D228DF88B20FFF7A2BA6A
:104D80002AAA0799039802F071FF00287FF460AC0B
:104D90002C9C0DF1B40B34E52AAA0799039802F074
:104DA00065FF00287FF454AC249B2C9C0DF1B40BC0
:104DB00093E730238DF88C307823B9F1630F8DF8A9
:104DC0008D3048F0020400F3B08248F481730E93F2
:104DD00026F0200304930022139B0A92A0463DAFC5
:104DE000002BC0F2E3819DED127B8DED1E7B002335
:104DF0000B93612E00F05582412E7FF4E3AE24A880
:104E00009DED1E0B02F03AFE00224FF07F5351EC55
:104E1000100B03F01BFF00220023CDE90C0104F06E
:104E20007DF9002840F00583634B0993CDE90FA677
:104E300009F1FF34CDF850902197B946CDF844B030
:104E4000CDF88080DDF824A0DDE90C6703E004F0F4
:104E500065F920BBA9460022584B3046394603F07D
:104E6000F5FE0F46064604F0A1F9804603F084FEE5
:104E700002460B463046394603F030FD4D461AF8DF
:104E800008C005F801CBB4F1FF3FA34606460F4624
:104E90004FF000024FF0000304F1FF34D7D1304649
:104EA00039460022464BDDF83CA0109ECDF83CB0C0
:104EB0004446CDF84090DDF88080DDF85090DDF874
:104EC00044B0219FCDE90C0104F050F9002840F0D6
:104ED0007681DDE90C010022394B04F01FF910B195
:104EE000E20700F16C810F9B002B07DB0F9B013366
:104EF0002B44302205F8012BAB42FBD1EB1B404683
:104F00001093DDF8388083E6CDF81090CDF824902A
:104F1000089481460F90149011909DF88B20FEF715
:104F2000ACBF2AAA0799039802F0A0FE00287FF4DC
:104F30008FAB249B2C9C0DF1B40B11E552420692D1
:104F40000893FFF76DB9144632461E4613462A46AB
:104F50000132099206F10802C6E90039099B2B9338
:104F60004C44072B2C943FF7C3AC0133099302F157
:104F7000080B1646FFF7CABB2AAA0799039802F046
:104F800075FE00287FF464AB2C9C0DF1B40BFFF789
:104F9000DEBA4B46062B28BF0623B9460F97149757
:104FA00011970A973A460493CDE90843054FFEF757
:104FB00064BF00BF08A60000ECA500000000304060
:104FC0000000E03F00A600000C4639465F469B46C5
:104FD0000B4601322C44072ACDE92B24CBE90035BE
:104FE0003FF7A5AC0BF1080BACE4119BDA1C02DB1C
:104FF000994580F2B580023E26F02003049311E625
:10500000109BCDF838805A46DDE91A8BFB18CDF895
:105010002CA00C97AF4EDDF81CA009934F46DDF88D
:105020000C902146149B002B5BD00F9B002B54D17E
:10503000149B013B08F1FF3814932B9B18981060C8
:1050400001335944072B2C91C2F804B02B9368DC30
:105050000832099898F80030C51B9D42A8BF1D462C
:10506000002D0BDD2B9B176001332944072B2C915E
:1050700055602B935EDC98F800300832002DACBFF1
:105080005D1B1D46002D26DD102D2B983CDD1024C8
:1050900003E00832103D102D36DD013010310728B5
:1050A000CDE92B01C2E90064F3DD2AAA5146484646
:1050B00002F0DCFD002850D1DDE92B012DAAE9E743
:1050C0002AAA5146484602F0D1FD002845D198F859
:1050D00000302C992DAA1F44A4E70F9B013B0F938E
:1050E000ABE70F9B002BF8D1B946109B0C9FCDF876
:1050F0006880FB189945DDF82CA0DDF838809346D0
:105100000C4628BF994624E4013029440728CDE9FC
:105110002B01C2E90065D3DC98F8003008321F4447
:1051200080E72AAA5146484602F0A0FDA8B92C996A
:105130002DAA8EE72AAA5146484602F097FD60B98B
:1051400098F800302C992DAA98E73846FEF798FC7D
:10515000A94603460990FFF7F4B8D146FFF77ABA9B
:10516000109B1946119B994200F38280C40740F1BD
:105170006B81159A13440993410503D5119B002BAC
:1051800000F3E680099B23EAE37304936726002378
:105190000F93149386E52D228DF88B204FF0000994
:1051A000FEF76CBEA146FFF755BA0A90DDE9121270
:1051B00002F100431F932D231E910B9319E6109BC0
:1051C0002893099B15F8012CD97B91422B4609D1D4
:1051D000302003F8010C289B5A1E289213F8012C4A
:1051E0009142F6D0392A0BBF099A0132927AD2B293
:1051F00003F8012C82E618F4007F3FF49FAD059A76
:105200001A705746FEF752BF2AAA0799039802F070
:105210002DFD00287FF41CAA249BDDE92B240DF131
:10522000B40B71E5119B002B40F36481119BB9F124
:10523000000F40F00381C60700F100810993662644
:10524000430500F18680099B23EAE37304939EE7FC
:105250002AAA0799039802F009FD00287FF4F8A90B
:10526000249B109A2C9CD31A0DF1B40BFFF790BB22
:10527000109B159A13440993119B002B40F349810D
:105280006726DDE730238DF88C30582395E50398A9
:105290002AAA494602F0EAFC00287FF4E0A9FEF7BA
:1052A0000FBF24A89DED1E0B02F0E8FB00224FF07B
:1052B0007F5351EC100B03F0C9FC00220023CDE911
:1052C0000C0103F02BFF08B101232493024B099337
:1052D000ACE500BF1CA60000D8A500005D4210335D
:1052E000B94B80F29780194610262346DDF80C90C2
:1052F0000C4605E00BF1080B103D102D40F38780A4
:1053000001321033072ACDE92B23CBE90046F1DD2A
:105310002AAA0799484602F0A9FC00287FF498A918
:10532000DDE92B230DF1B40BE6E709F10101039848
:1053300001F096FD0746002800F03B8148F4817398
:105340000E9326F020030493A046139B0A9047E592
:1053500067261A9800220F9214920378119AFF2B55
:105360000CD093420ADA4178D21AA9B1149B0133C6
:1053700014930B46FF2B00F10100F2D11192149B04
:105380000F9A09991A9013441B9A02FB031309936D
:1053900023EAE373049385E40F9901310F91DEE76B
:1053A00028AA25ABCDE90032032124AB4A469DED66
:1053B0001E0B039800F0E0FA4D46074600EB090487
:1053C0003B78302B00F0BE80249D2C44002200232B
:1053D000DDE91E0103F0A2FE08B1234613E4289B79
:1053E000A342BFF410AC30215A1C28921970289B9C
:1053F0009C42F9D807E47C19E8E7B9F1000F00F006
:1054000092800A90ECE40A904FF00609E8E4214605
:105410001C460B4601322C44072ACDE92B24CBE94C
:10542000003500F3A9800BF1080B70E49A46FFF7F2
:1054300037BB01232493654B0993F7E4159A134472
:105440004B4409936626FBE6119B099394E60DF104
:10545000A70C64465E4D00E01446A5FB0312D2087B
:1054600002EB8201A3EB410303F130011346092B48
:1054700004F8011C04F1FF32EEDC3033023CDBB2F5
:10548000A44502F8013C40F290800DF19A041146C7
:1054900001E011F8013B04F8013B8C45F9D12AAB3E
:1054A0009B1A0DF19A021344FFF7E3BB139B494F7C
:1054B000002BB6BF2D229DF88B208DF88B20464BFC
:1054C000FEF702BFDDF81C90FFF7C9B828AA25AB8C
:1054D000CDE90032032124AB4A469DED1E0B039813
:1054E00000F04AFA4D460746462E07EB05043FF406
:1054F00067AF6BE7B9F1000F31D1C5072FD4012396
:1055000004930993662642E6C3077FF5BFABFFF716
:10551000B9BB099AC3F101031A4422EAE273099262
:105520000493672633E6CDF828904FF0010957E43D
:105530005A4611E5472E7FF45EAF18F0010F3FF495
:1055400061ABD1E700220023DDE91E0103F0E6FD97
:1055500000287FF439AFC5F10105249535E7159B87
:1055600001334B44099323EAE373049366260EE662
:105570000DF19A02FFF77ABB2AAA0799039802F065
:1055800075FB00287FF464A8DDE92B240DF1B40B32
:10559000FFF7BDBB08999AF801600B6843EAE3790D
:1055A0000B1D92460893FEF759BB0DF19A03FFF7C6
:1055B00060BBDDF81C90B9F80C3043F04003A9F84B
:1055C0000C30FFF74CB800BF1CA60000ECA5000093
:1055D000CDCCCCCCD4A50000D0A500002DE9F04165
:1055E0000C46ADF58D6D8989666EE589199621F0B9
:1055F00002010646E069ADF80C1017464FF48061D1
:10560000626AADF80E5098461AAD0023079016A8AE
:1056100009920693009504950291059101F090FB83
:1056200043463A4669463046FEF79AFA051E07DBBE
:105630003046694601F05AF9002818BF4FF0FF358F
:10564000BDF80C305B0603D5A38943F04003A3816A
:10565000169801F077FB28460DF58D6DBDE8F081B9
:1056600021B1FF2A04D80A7001207047084670470C
:105670008A2303604FF0FF30704700BF38B5314BCD
:105680001B6805460C4613B19A6B002A3AD0B4F950
:105690000C2093B218070CD52069A8B113F00102B1
:1056A00020D0636900225B42A361A26000B30020A6
:1056B00038BDD9063ED5580728D4206942F00803E2
:1056C000A3819BB20028E9D103F42072B2F5007FD8
:1056D000E4D02846214601F069FBA389206913F034
:1056E0000102DED1990758BF6269A2600028DED1AD
:1056F000B4F90C301A06DBD543F04003A3814FF018
:10570000FF3038BD184601F04DF9C0E7216B51B1AB
:1057100004F14003994204D0284601F0E5F9B4F9B8
:105720000C200023236300232069636022F02402FD
:105730002060C3E742F0400209232B604FF0FF30A6
:10574000A28138BD0C000020024B13B1024800F0CA
:1057500079B8704700000000156A00002DE9F04F8D
:10576000354B85B00F460390186801F0EDFA334BC6
:105770001B68019303F5A4730293B946019BD3F808
:1057800048613EB3DDF808A04FF001087468651E5B
:105790000FD4013406EB84040027B9F1000F20D0A8
:1057A000D4F800314B451CD0013D6B1CA4F104041E
:1057B000F3D1234B73B1D6E90032002A34D1002B48
:1057C00032D03046CAF8003001F042FBDAF800600F
:1057D000002EDBD1184B186805B0BDE8F04F01F082
:1057E000B5BA73682268013BAB420CBF7560276095
:1057F000002AD9D0D6F88811D6F804B008FA05F3F3
:105800000B4208D1904773685B45B7D1DAF8003096
:10581000B342C9D0B2E7D6F88C01D4F88010034265
:1058200007D103989047EEE7B2461E46002EADD151
:10583000D0E708469047E6E7A4050020B4A500009D
:10584000516E0000002301461A46184602F018BAAD
:105850002DE9F04F03690F69BB4283B0C0F2868027
:10586000013F01F1140900F1140A59F827205AF8F0
:105870002730BC000132B3FBF2F80AEB04030094BA
:1058800009EB040B0193B8F1000F38D000252E4628
:10589000CE46D4465EF8044BDCF80030A2B208FBDA
:1058A0000255220C2C0C08FB0242ADB2751B96B2BD
:1058B000C6EB134615FA83F306EB23469BB243EA85
:1058C0000643F3454FEA12454CF8043B4FEA26469F
:1058D000E0D2009B5AF803308BB9019A131F9A4506
:1058E0000CD252F8043C4BB9A2F1080302E01A684A
:1058F000043B1AB99A4507F1FF37F8D3076104460C
:1059000001F0C8FF00282DDB08F1010855460023EF
:1059100059F8041B28688AB29A1A0B0C12FA80F202
:10592000C3EB104303EB224392B242EA0342CB455E
:1059300045F8042B4FEA2343EAD25AF827200AEB12
:1059400087037AB91A1F92450BD253F8042C42B937
:10595000083B02E01A68043B1AB99A4507F1FF3781
:10596000F8D32761404603B0BDE8F08F002003B0B4
:10597000BDE8F08F000000002DE9F04F55EC104B12
:105980009BB0066C0291814607920593CDE90045D4
:1059900056B1426C726001239340B360314601F00E
:1059A00089FD0023C9F84030B5F10008249AB4BF3E
:1059B000012300231360764BBCBF28F00048CDF8CC
:1059C000048033EA080300F0A680DDE900670022C6
:1059D00000233046394603F0A1FB054678B1059A0D
:1059E00001231360259B002B00F0C080694B259A92
:1059F00003F1FF3B136058461BB0BDE8F08F18AAB7
:105A000019A947EC106B484601F0D6FF5FEA18541D
:105A1000824640F0A080DDE918542C4404F2324361
:105A2000202B40F32C84C3F1400308FA03F8009BB9
:105A300004F2124023FA00F048EA000003F08CF868
:105A400001230646013CA1F1F8770F933046394611
:105A50000022514B02F042FF47A3D3E9002303F099
:105A6000F5F847A3D3E9002302F03AFF06462046A3
:105A70000F4603F081F844A3D3E9002303F0E6F8CE
:105A800002460B463046394602F02AFF06460F46CC
:105A900003F08CFB0022069000233046394603F0C9
:105AA00047FB002840F07382069E162E00F25D82AE
:105AB0003A4B03EBC603D3E90001DDE9002303F011
:105AC00055FB002800F0D783731E069300230D9327
:105AD0002C1BB4F1010800F1548200230893069BAB
